:020000040800F2
:10000000E80E0020D501000835120008D70C0008C2
:10001000411100083B080008931F00080000000081
:10002000000000000000000000000000B9160008F9
:10003000610A000800000000A1140008CD170008A4
:10004000EF010008EF010008EF010008EF010008D0
:10005000EF010008EF010008EF010008EF010008C0
:10006000EF010008EF010008EF010008EF010008B0
:10007000EF010008EF010008EF010008EF010008A0
:10008000EF010008EF010008EF010008EF01000890
:10009000EF010008EF010008EF010008EF01000880
:1000A000EF010008EF010008EF010008EF01000870
:1000B000EF01000831180008EF010008EF01000807
:1000C000EF010008EF010008EF010008EF01000850
:1000D000EF010008351B0008BD1B0008E91C0008E3
:1000E000EF010008EF010008EF010008EF01000830
:1000F000EF010008EF010008EF010008EF01000820
:10010000EF010008EF010008EF010008EF0100080F
:10011000EF010008EF010008EF010008EF010008FF
:10012000EF010008EF010008EF010008EF010008EF
:1001300000F002F800F03FF80AA090E8000C8244BA
:100140008344AAF10107DA4501D100F034F8AFF297
:10015000090EBAE80F0013F0010F18BFFB1A43F0A5
:10016000010318476476000084760000103A24BF2B
:1001700078C878C1FAD8520724BF30C830C144BF0C
:1001800004680C607047000000230024002500264E
:10019000103A28BF78C1FBD8520728BF30C148BFEA
:1001A0000B607047642900F07B80002070471FB50A
:1001B0001FBD10B510BD00F015FB1146FFF7F7FF8E
:1001C00003F0B8FE00F033FB03B4FFF7F2FF03BC0B
:1001D00001F065FF0948804709480047FEE7FEE750
:1001E000FEE7FEE7FEE7FEE7FEE7FEE7FEE7FEE7E7
:1001F00004480549054A064B70470000D11700081E
:1002000031010008E8020020E80E0020E806002086
:10021000E8060020704710B54C1084EA530404D55A
:100220004042C1F1000138BF491E1B4204D5524271
:10023000C3F1000338BF5B1E00F09BF914F0804F40
:1002400004D04042C1F1000138BF491E14F0004FF4
:1002500004D05242C3F1000338BF5B1E10BD000042
:100260000FB4044910B503AA029800F07BFA10BC41
:100270005DF814FBA40000200FB41CB5074B06AAC0
:100280007B4469460090059800F053FA00206946C7
:1002900000F062FA1CBC5DF814FB0000D5040000FD
:1002A0002DE9F0410646002410687529314616A54F
:1002B00010D0AFF30080002802DA404213A507E017
:1002C00031688A0701D512A502E0490704D511A5B6
:1002D000012401E0AFF3008000210A2206F1240787
:1002E00009E0B0FBF2FCB0FBF2F302FB1C00303083
:1002F00078541846491C0028F3D123462A46304634
:10030000BDE8F04100F0B7B9000000002D0000008A
:100310002B000000200000002DE9F05F8946044614
:100320004FF0000ADFF824B1FB44C0F820A02046BB
:10033000E168884700287DD0252806D0D4E901212E
:100340009047206A401C2062F1E700255F46204666
:10035000E16888472028064607DB312E05D2B81908
:1003600010F8200C08B10543F1E7A80701D525F0E6
:100370000405C4F81CA00027C4F818A02A2E09D030
:10038000304601F085FE38B304EB8708303EC8F8EC
:10039000186019E059F8041B204604EB87029161AC
:1003A000E1688847012F064618D1E069002820DA65
:1003B00025F020051DE0D8F8180000EB800006EBC2
:1003C00040003038C8F818002046E16888470646E3
:1003D00001F05EFE0028EED1012F0AD02E2E08D1AA
:1003E0002046E16888477F1C0646022F45F020051D
:1003F000C4DBA069002803DA404245F00105A06192
:10040000E80701D025F01005A6B1A6F14100192892
:1004100002D8203645F400654A463146204625601C
:100420004D46FFF7BFFE60B1012807D0ED1D25F056
:10043000070000E007E000F1080978E705F104098A
:1004400075E730467AE7206ABDE8F09F3E7300000A
:1004500040EA010310B59B070FD1042A0DD310C841
:1004600008C9121F9C42F8D020BA19BA884201D993
:10047000012010BD4FF0FF3010BD1AB1D30703D0DB
:10048000521C07E0002010BD10F8013B11F8014B91
:100490001B1B07D110F8013B11F8014B1B1B01D1AD
:1004A000921EF1D1184610BD10B5203AC0F00B8055
:1004B000B1E81850203AA0E81850B1E81850A0E868
:1004C0001850BFF4F5AF5FEA027C24BFB1E81850C2
:1004D000A0E8185044BF18C918C0BDE810405FEA32
:1004E000827C24BF51F8043B40F8043B08BF7047AE
:1004F000D20728BF31F8023B48BF11F8012B28BFB3
:1005000020F8023B48BF00F8012B704702F0FF03C0
:1005100043EA032242EA024200F038B94FF00002F7
:1005200000B5134694469646203922BFA0E80C50E9
:10053000A0E80C50B1F12001BFF4F7AF090728BFC4
:10054000A0E80C5048BF0CC05DF804EB890028BF40
:1005500040F8042B08BF704748BF20F8022B11F069
:10056000804F18BF00F8012B7047704770477047E5
:10057000704753EA020C00F069802DE9F04B4FF010
:100580000006002B1FBFB3FA83F503FA05F424FA23
:1005900005F65E4012BF1643B2FA82F502FA05F480
:1005A000C5F120051EBF22FA05FC44EA0C042035E3
:1005B00056EA044C4FEA144418BF641C4FF000087C
:1005C0004FF00009904271EB030C39D3002919BF99
:1005D000B1FA81F701FA07F6B0FA80F700FA07F6E8
:1005E000C7F120071EBF20FA07FC46EA0C06203799
:1005F000B6FBF4FCA7EB0507103F07F01F0BCBF190
:1006000020060CFA0BFB2CFA06F644BFB346002674
:10061000202FA4BF5E464FF0000B5BEA060C08BF1C
:100620004FF0010B19EB0B09ABFB027C48EB060802
:10063000C01B06FB02CC0BFB03CC71EB0C01C1E72A
:100640000B46024641464846BDE8F08B13B54FF0D5
:1006500000004FF00001AFF30080BDE81C40704780
:1006600010B500F0B3F8006810BD10B5044600F0F6
:10067000ADF8046010BD2DE9F0470D46994692464D
:10068000044600F124080168880604D5E06921F0D9
:100690001001216000E00120A84201DD471B00E0BD
:1006A0000027A1697A1902EB0900081AA0612078D5
:1006B000C00602D42046AFF30080002608E0D4E94B
:1006C00001211AF806009047206A401C761C20621F
:1006D0004E45F4DB2078C0060AD52046AFF30080F3
:1006E00006E0D4E9012130209047206A401C2062B6
:1006F000381EA7F10107F4DC07E0D4E9012118F85E
:1007000005009047206A401C2062281EA5F10105C3
:10071000F3DC2046AFF300802078000602D50220EB
:10072000BDE8F0870120FBE701694A1C02610878F7
:10073000704700B58FB0CDE9013100210591054921
:100740007944CDE9031011466846FFF7E5FD0FB087
:1007500000BD0000E5FFFFFF0A6802F8010B0A6018
:1007600070470000074B70B50D467B44FFF7E1FF73
:100770000446284600F02EF810B14FF0FF3070BD4F
:10078000204670BDFF3000004FF000020429C0F089
:10079000128010F0030C3FF4C3AECCF1040CBCF19A
:1007A000020F18BF00F8012BA8BF20F8022BA1EB05
:1007B0000C01FFF7B5BE5FEAC17C24BF00F8012B36
:1007C00000F8012B48BF00F8012B70470048704724
:1007D00084020020007B00F08000704700487047D2
:1007E000840200207546FFF7F9FFAE460500694612
:1007F000534620F00700854618B020B5FFF7F8FCF7
:10080000BDE820404FF000064FF000074FF0000811
:100810004FF0000B21F00701AC46ACE8C009ACE892
:10082000C009ACE8C009ACE8C0098D467047044671
:10083000AFF300802046FFF7C7FC00BFFEE70000D3
:1008400010B504464FF480510D4800F042FA4FF4C1
:1008500000510B4800F03BFA4FF48041084800F08B
:1008600036FA4FF40041064800F031FAA1B20548CB
:1008700001F0F5F80021034801F0EFF810BD000089
:10088000000C01400008004010B504464FF48051B0
:100890000D4800F01EFA4FF400510B4800F017FA13
:1008A0004FF48041084800F014FA4FF40041064824
:1008B00000F00DFAA1B2054801F0D1F8A1B2034849
:1008C00001F0CBF810BD0000000C01400008004012
:1008D00070B504460D464FF480510D4800F0F7F90D
:1008E0004FF400510A4800F0F4F94FF480410848F1
:1008F00000F0EFF94FF40041054800F0E8F9A1B22B
:10090000044801F0ACF8A9B2024801F0A6F870BDA5
:10091000000C01400008004070B504460D464FF43D
:1009200080510D4800F0D5F94FF400510A4800F00D
:10093000CEF94FF48041084800F0C9F94FF4004166
:10094000054800F0C6F9A1B2044801F088F8A9B240
:10095000024801F082F870BD000C01400008004020
:1009600010B54FF480510D4800F0B1F94FF400512B
:100970000A4800F0ACF94FF48041084800F0A7F9AC
:100980004FF40041054800F0A2F90021044801F0AD
:1009900066F80021024801F060F810BD000C01402B
:1009A0000008004010B500244FF4A06000F07CFC6B
:1009B00001F04CFF00F0CAF94FF4E13004F0ACFE56
:1009C0004FF4E13001F03EF94FF4165001F0B0F968
:1009D00000F048F8012004F02BFE00F0DFF90023BE
:1009E0004FF4E1521946104600F0ACFB40F2CF2123
:1009F0004FF4FA5000F032FF002000F05FFC0CE0F2
:100A00000A2001F045FF2046611CCCB2642804DDB9
:100A100000240B490BA001F07FF803F0D7FC00285D
:100A2000EED100BF0D4804F0B5FC0028FAD140F229
:100A3000E241052000F05EF9FFF792FF10BD0000D3
:100A4000004400406D7075363035305F496E697412
:100A5000206661696C6564200A00000004000020C3
:100A60007047000010B594B039A103C9CDE9120157
:100A7000282239A108A8FFF717FD41A30FCB04AC2A
:100A80000FC443A207CA01AB07C300240DE012A89C
:100A9000005D4249088000BF4048001F008800F008
:100AA00040000028F8D0601CC4B2082CEFDB40F2F4
:100AB000DC5001F0EDFE00240DE008A8005D374990
:100AC000088000BF3548001F008800F04000002863
:100AD000F8D0601CC4B2282CEFDB4FF4FA6001F0B0
:100AE000D7FE00240DE004A8005D2C49088000BF5B
:100AF0002A48001F008800F040000028F8D0601C41
:100B0000C4B20E2CEFDB4FF4487001F0C1FE00249C
:100B10000DE001A8005D2149088000BF1F48001FAB
:100B2000008800F040000028F8D0601CC4B20C2CF3
:100B3000EFDB4FF4487001F0ABFE1849091F18A015
:100B400000F0EAFF01201B49087014B010BD00003E
:100B500041542B5253540D0A41542B434950535482
:100B60004152543D22544350222C223139322E31ED
:100B700036382E34332E3338222C383038300D0AA4
:100B800041542B4349504D4F44453D310D0A00001F
:100B900041542B43495053454E440D0A04440040F0
:100BA0007769666920636F6E6E6563746564212082
:100BB0000A000000200000202DE9F0410246002537
:100BC0000026002000230024002791F803C00CF029
:100BD0000F0591F803C00CF0100CBCF1000F03D00E
:100BE00091F802C04CEA050591F800C0BCF1000F75
:100BF00031D0146800202BE04FF0010C0CFA00F308
:100C0000B1F800C00CEA03069E4220D183004FF0E9
:100C10000F0C0CFA03F7BC4305FA03FC4CEA04047E
:100C200091F803C0BCF1280F06D14FF0010C0CFA6B
:100C300000FCC2F814C00AE091F803C0BCF1480FF0
:100C400005D14FF0010C0CFA00FCC2F810C0401C9A
:100C50000828D1D31460B1F800C0BCF1FF0F34DD17
:100C6000546800202EE000F1080C4FF0010808FA4B
:100C70000CF3B1F800C00CEA03069E4221D18300B8
:100C80004FF00F0C0CFA03F7BC4305FA03FC4CEAD7
:100C9000040491F803C0BCF1280F05D100F1080C41
:100CA00008FA0CF8C2F8148091F803C0BCF1480FA0
:100CB00007D100F1080C4FF0010808FA0CF8C2F84F
:100CC0001080401C0828CED35460BDE8F0814161FB
:100CD00070470161704700BFFEE700004CF6CC4052
:100CE00001490860704700000030004010B500F076
:100CF00013F810BD70B505460C4645F2555000F08E
:100D00001FF8284600F010F8204600F013F800F015
:100D100003F8FFF7E3FF70BD4AF6AA200149086017
:100D200070470000003000400149486070470000F3
:100D300000300040014988607047000000300040EA
:100D400001490860704700000030004008B50121EB
:100D5000242000F0B7FB4FF48070ADF800001020A5
:100D60008DF8030003208DF8020069460948FFF75B
:100D700023FF4FF480710748FFF7ABFF0420ADF865
:100D8000000069460448FFF717FF04210248FFF7F7
:100D9000A0FF08BD000801400014014008B5012172
:100DA000082000F08FFB4FF47040ADF800001020D9
:100DB0008DF8030003208DF8020069460448FFF710
:100DC000FBFE4FF470410248FFF781FF08BD0000B1
:100DD000000C014010B500200E4908600E48406824
:100DE00020F470400C4948600846406840F4405088
:100DF000486000200949C1F8AC0100F011F8012059
:100E00000449086000F00CF800200449C1F8B00162
:100E100010BD0000B001224200100140000022423B
:100E200010B5022001F05AFD10BD000008B50121E7
:100E3000102000F047FB4FF4C050ADF80000102028
:100E40008DF8030003208DF8020069460448FFF77F
:100E5000B3FE4FF4C0510248FFF73BFF08BD00004E
:100E60000010014010B500200E4908600E4840688F
:100E700020F470400C4948600846406840F44050F7
:100E8000486001200949C1F8AC01FFF7C9FF012002
:100E900004490860FFF7C4FF00200449C1F8B0010D
:100EA00010BD0000B00122420010014000002242AB
:100EB00070B5054600241648406820F47040144977
:100EC00048600846406840F400404860002614E04E
:100ED000002010490860FFF7A3FF01200E49C1F868
:100EE000B0016006040E0B488438006808B1601C2D
:100EF000C4B2FFF795FF701CC6B2082EE8DB15B927
:100F0000FFF7B0FF01E0FFF765FF204670BD00006E
:100F100000100140B00122420000224270B5044698
:100F20001248406820F47040104948600846406804
:100F300040F44050486000200D490860002512E050
:100F4000E0090B49091F08606006040E01200949E9
:100F5000C1F8B001FFF764FF002005490860FFF702
:100F60005FFF681CC5B2082DEADB70BD00100140B0
:100F7000B00122420000224210B50E48406820F421
:100F800070400C4948600846406840F44050486052
:100F90000120094908600949C1F8B001FFF740FF85
:100FA000002005490860FFF73BFF00200349C1F816
:100FB000B00110BD00100140AC01224200002242ED
:100FC00010B50E48406820F470400C49486008464F
:100FD000406840F4405048600020094908600949D1
:100FE000C1F8AC01FFF71CFF012005490860054965
:100FF000C1F8AC01FFF714FF10BD00000010014064
:10100000B00122420000224210B50024144840687A
:1010100020F47040124948600846406840F400409F
:10102000486001200F490860FFF7FAFE01200E49D1
:10103000C1F8B001FFF7F4FE07E0601CC4B2FA2C5F
:1010400003DDFFF7BDFF012010BD064880380068B2
:101050000028F2D10349091D086000BFF4E7000031
:1010600000100140AC012242000022422DE9F04173
:1010700006460F4614461D46FFF77EFF002141EA53
:101080004601C8B2FFF74AFFFFF7BEFF20B1FFF7E6
:1010900097FF0120BDE8F0813846FFF73FFFFFF7DB
:1010A000B3FFFFF769FF012101EB4601C8B2FFF76B
:1010B00035FFFFF7A9FF0DE0012C04D10020FFF759
:1010C000F7FE287003E00120FFF7F2FE2870601E93
:1010D000C4B26D1C002CEFD1FFF772FF0020D9E7DE
:1010E0002DE9F04105460E4617469846FFF744FFA6
:1010F000002141EA4501C8B2FFF710FFFFF784FF66
:1011000020B1FFF75DFF0120BDE8F0813046FFF719
:1011100005FFFFF779FF00240CE018F80400FFF743
:10112000FDFEFFF771FF18B1FFF74AFF0120EBE763
:10113000601CC4B2BC42F0DBFFF742FF0020E3E7D3
:1011400000BFFEE7F0B589B007460C4615461E46BF
:101150000121042000F0A6F90121092000F0B2F9D4
:101160004FF40070ADF8200018208DF82300032004
:101170008DF8220008A92D48FFF71EFDADF8187064
:10118000ADF814400020ADF81A00ADF8160005A91E
:10119000274800F067FC6020ADF804000120ADF89E
:1011A00006000020ADF80C00ADF80A0001A92048A7
:1011B00000F008FC08211E4800F042FC01211C48F8
:1011C00000F07FFB4FF48070ADF8200018208DF800
:1011D000230003208DF8220008A91448FFF7ECFC37
:1011E000ADF81850ADF814600020ADF81A00ADF855
:1011F000160005A90E4800F035FC6020ADF804008B
:101200000120ADF806000020ADF80C00ADF80A0092
:1012100001A9074800F07CFB0821054800F0C8FB45
:101220000121034800F04DFB09B0F0BD000C014066
:10123000000800407047000070B5002100230F2215
:10124000C47804B3154C246804F4E064C4F5E06485
:10125000210AC1F10403CA40447804FA03F18478F6
:101260001440214309010E4C0678A155047804F07E
:101270001F050124AC4005786D11AD0005F1E02596
:10128000C5F8004109E0047804F01F050124AC40D2
:10129000044D0678761145F8264070BD0CED00E04F
:1012A00000E400E080E100E002490143024A1160ED
:1012B000704700000000FA050CED00E010B5044690
:1012C00024210648FFF72AF94FF07E500349486071
:1012D00000208860C8600248086010BD98010020A6
:1012E000CDCCCC3D2DE9F84F04462168A06805F02F
:1012F00011F880462168E06805F09EF98146616832
:1013000004F09AFF0746414604F096FF05464FF069
:101310008040A16805F090F98046216804F0FAFF4A
:101320000746616804F088FF06462168A06804F05B
:10133000F1FF0090A169009805F07EF981463046E2
:10134000616905F079F982462846216905F074F94A
:101350008346216A04F070FF8046514605F074FA16
:101360000746494604F068FFE061E0692062606971
:10137000A06120696061BDE8F88F00002DE9F041AF
:1013800006460D463D49304604F056FF07463C49A7
:1013900005F01EF90DD23B49284605F019FA08D28E
:1013A0002946394805F050FA0746384905F041FA10
:1013B00005462946304605F03CFA3549086108469D
:1013C000FFF790FF3249C869002105F001F90FD2FB
:1013D0002F48C06980F00048404605F0ADF887B25C
:1013E0004FF448720021384601F0F2F904460BE050
:1013F0002749C86905F0A0F887B24FF44872002168
:10140000384601F0E5F9044622480078D0B904F5E1
:10141000AF6084B21E4908694FF0804105F0D8F9E9
:1014200004D221462046FFF777FA25E018490869DB
:101430004FF0404105F0CCF81ED221462046FFF780
:1014400047FA19E014480088204484B2104908691A
:10145000124905F0BDF904D221462046FFF75CFA97
:101460000AE00B4908694FF07E5105F0B1F803D24C
:1014700021462046FFF72CFABDE8F0810000224308
:101480000000A0400000C84200003443000034C304
:1014900098010020020000202A000020000080BFE8
:1014A0007047000029B1064AD2690243044BDA6151
:1014B00004E0034AD2698243014BDA6170470000BD
:1014C0000010024029B1064A92690243044B9A6116
:1014D00004E0034A92698243014B9A61704700001D
:1014E0000010024030B500210022002400232D4DC1
:1014F0006D6805F00C0121B1042905D0082923D11C
:1015000005E0294D056022E0274D05601FE0254DCF
:101510006D6805F47012234D6D6805F48034022562
:1015200005EB92421CB9214D554305600BE01D4D62
:101530006D6805F400351DB11C4D5543056002E092
:10154000194D5543056002E0174D056000BF00BF0F
:10155000144D6D6805F0F0010909154D6B5C0568C7
:10156000DD4045600F4D6D6805F4E061090A104DDE
:101570006B5C4568DD4085600A4D6D6805F460511F
:10158000C90A0B4D6B5C4568DD40C560054D6D6853
:1015900005F44041890B074D6B5CC568B5FBF3F55D
:1015A000056130BD0010024000127A0000093D00C4
:1015B000AA000020BA000020FEB50646012E3DD14B
:1015C000002025490870254805793DB1244925A00A
:1015D00000F0A2FA002028490880FEBD002406E0A1
:1015E0001E49601D085C0DF80400601CC4B2062C86
:1015F000F6DB02F037FD8DF8060001F095F98DF865
:1016000007001E4800788DF808003F208DF809007B
:1016100065B9134A0A21684600F036F84FF4FA70AB
:1016200001F036F900201449088006E00C490DA0AD
:1016300000F072FA00201049088004E0084909A06F
:1016400000F06AFA00BF00BF0D4841780D4A00F073
:101650001BF800BFC1E70000660000202401002045
:1016600000440040526966642072656164206572BE
:10167000726F72210A0000001E0000206500002029
:1016800067000020004800402DE9F04105460E4665
:10169000174600240CE0295D384600F076FC00BFB8
:1016A0008021384600F0A4FB0028F9D0601CC4B2A9
:1016B000B442F0DBBDE8F081704710B500F002F8ED
:1016C00010BD00000CB50020019000903348006868
:1016D00040F480303149086000BF3048006800F4B1
:1016E000003000900198401C0190009818B90198B2
:1016F000B0F5A06FF1D12948006800F4003010B1B6
:101700000120009001E0002000900098012843D1C2
:101710002348006840F0100021490860084600682E
:1017200020F0030008600846006840F002000860EE
:101730001A484068194948600846406848600846A9
:10174000406840F4806048600846406820F47C109F
:1017500048600846406840F4E81048600846006861
:1017600040F08070086000BF0C48006800F0007016
:101770000028F9D00948406820F003000749486074
:101780000846406840F00200486000BF03484068D7
:1017900000F00C000828F9D10CBD00000010024038
:1017A00000200240042808D14FF0E021096941F0EF
:1017B00004014FF0E022116107E04FF0E0210969D8
:1017C00021F004014FF0E0221161704770470000E2
:1017D00010B51348006840F0010011490860084640
:1017E0004068104908400E494860084600680E49A4
:1017F00008400B4908600846006820F48020086013
:101800000846406820F4FE0048604FF41F008860DE
:10181000FFF753FF4FF000600449086010BD00005F
:10182000001002400000FFF8FFFFF6FE08ED00E0A8
:1018300010B50121074800F050F850B101200649C9
:1018400008700121034800F039F80021014800F038
:1018500038F810BD000400402C0000207FB505467C
:101860000C4601210220FFF71DFEADF80850ADF82F
:1018700004400020ADF80A00ADF8060001A90E48AA
:1018800000F0F0F81D208DF8000001208DF8010017
:1018900003208DF8020001208DF803006846FFF751
:1018A000CBFC01221146044800F028F8012102482F
:1018B00000F007F87FBD000000040040CA43028228
:1018C000704721B1028842F00102028004E00288E0
:1018D0004FF6FE731A400280704730B50246002072
:1018E00000230024158A05EA0103958905EA01040D
:1018F00013B10CB1012000E0002030BD1AB1838982
:101900000B43838102E083898B438381704700000E
:1019100070B5002400220023058C4FF6FF66354089
:101920000584028C8388848B4FF68F752C404FF68C
:10193000FC752C400D882C434FF6FF552A400D892D
:101940004FF6FF7606EA05252A434D8806EA052567
:101950002A43154DA84202D0144DA8421DD14FF282
:10196000FF752A404D894FF6FF7606EA05252A4382
:101970004FF6FF352A408D8806EA05252A434EF6A4
:10198000FF752B404DF6FF752B408D8906EA051536
:101990002B43CD8906EA05152B4383808483CD88AC
:1019A0008587028470BD0000002C01400034014096
:1019B0000A460021818B4FF6F7731940114381834A
:1019C0007047000070B5002200230024058C4EF6FD
:1019D000FF7635400584038C8488828B48F6FF753A
:1019E0002A404FF6FF452A400D884FF6FF7606EA5B
:1019F00005252A434DF6FF752B400D8906EA05356E
:101A00002B434D8806EA05352B430B4DA84202D0E7
:101A10000A4DA84208D14BF6FF752C408D894FF630
:101A2000FF7606EA85152C4384808283CD88A0F852
:101A30004050038470BD0000002C01400034014080
:101A40000A460021818B4FF2FF7319404FF6FF7356
:101A500003EA022319438183704781877047A0F806
:101A600040107047002202881D4B98420ED01D4B3B
:101A700098420BD0B0F1804F08D01B4B984205D054
:101A80001A4B984202D01A4B984204D14FF68F73EA
:101A90001A404B881A43174B984207D0164B98426E
:101AA00004D04FF6FF431A40CB881A4302808B883C
:101AB00083850B8803850A4B98420BD0094B9842CB
:101AC00008D00E4B984205D00D4B984202D00D4BDA
:101AD000984201D10B7A038601238382704700006C
:101AE000002C014000340140000400400008004088
:101AF000000C004000100040001400400040014075
:101B0000004401400048014000BF0A8802F0400242
:101B1000002AFAD08880704710B503460C4604E0CE
:101B200018782146FFF7F0FF5B1C18780028F7D1E2
:101B300010BD000010B540F225511D4800F065F9B8
:101B400010B31B4800F01CFAC4B21A48008800F415
:101B50000040C8B91748008800F4804060B10A2CE2
:101B600003D000201349088020E01248008840F488
:101B700000401049088019E00D2C06D10D4800885E
:101B800040F480400B49088010E00A480088C0F308
:101B90000D0009490C5407480088401C054908807D
:101BA00008460088C72801DD0020088010BD00001D
:101BB00000380140A8000020BC01002010B540F210
:101BC00025511D4800F021F910B31B4800F0D8F949
:101BD000C4B21A48008800F40040C8B91748008809
:101BE00000F4804060B10A2C03D000201349088023
:101BF00020E01248008840F400401049088019E0B5
:101C00000D2C06D10D48008840F480400B49088017
:101C100010E00A480088C0F30D0009490C54074839
:101C20000088401C0549088008460088632801DDBB
:101C30000020088010BD0000004400401C0000206F
:101C4000C000002010B586B0044601210420FFF733
:101C500039FC01214804FFF725FC0420ADF81400ED
:101C600003208DF8160018208DF8170005A91C48D0
:101C7000FEF7A2FF0820ADF8140004208DF817002D
:101C800005A91748FEF798FF26208DF800000020D0
:101C90008DF8010003208DF8020001208DF803006B
:101CA0006846FFF7C9FA01940020ADF80800ADF8C6
:101CB0000A00ADF80C00ADF810000C20ADF80E00D5
:101CC00001A9084800F0F0F8012240F2255105482A
:101CD00000F0C5F80121034800F07EF806B010BD01
:101CE000000801400044004010B540F225510C4866
:101CF00000F08BF890B10A4800F042F9C4B20948EC
:101D000001880088401C074A108007484454104648
:101D100000880C2802D101200449087010BD000081
:101D2000004800401E000020240100206600002022
:101D300010B586B0044601210820FFF7C3FB01213E
:101D40008804FFF7AFFB4FF48060ADF81400032068
:101D50008DF8160018208DF8170005A91C48FEF70D
:101D60002BFF4FF40060ADF8140004208DF817002D
:101D700005A91748FEF720FF27208DF80000012055
:101D80008DF8010003208DF8020001208DF803007A
:101D90006846FFF751FA01940020ADF80800ADF84D
:101DA0000A00ADF80C00ADF810000C20ADF80E00E4
:101DB00001A9084800F078F8012240F225510548B1
:101DC00000F04DF80121034800F006F806B010BD00
:101DD000000C01400048004021B1828942F40052C9
:101DE000828104E082894DF6FF731A408281704738
:101DF00002460020B1F5007F00D100BF13880B40E0
:101E00000BB1012000E00020704770B502460024AD
:101E100000230025002040F66A16B14200D100BF21
:101E2000C1F3421501F01F03012606FA03F3012D49
:101E300002D19689334006E0022D02D1168A334042
:101E400001E0968A33400C12012606FA04F4168843
:101E5000344013B10CB1012000E0002070BDF0B59A
:101E60000346002400260025002040F66A17B942E8
:101E700000D100BF1846C1F3421401F01F0601272C
:101E800007FA06F5012C01D10C3004E0022C01D137
:101E9000103000E014301AB107682F43076002E0E9
:101EA0000768AF430760F0BD2DE9F04786B00546EF
:101EB0000E460024A24600BFA1460027B08900B10B
:101EC00000BF2F462C8A4CF6FF700440F088044374
:101ED0002C82AC894EF6F3100440B0883189084357
:101EE000718908430443AC81AC8A4FF6FF4004403B
:101EF000B0890443AC8201A8FFF7F4FA1F48874277
:101F000002D1DDF810A001E0DDF80CA0A88900F4F2
:101F1000004040B10AEBCA0000EB0A1031684900EA
:101F2000B0FBF1F807E00AEBCA0000EB0A103168D9
:101F30008900B0FBF1F86420B8FBF0F0040120093F
:101F4000642101FB1089A88900F4004040B13220CF
:101F500000EBC900B0FBF1F000F00700044308E01B
:101F6000322000EB09106421B0FBF1F000F00F000B
:101F700004432C8106B0BDE8F08700000038014022
:101F800001468888C0F308007047C1F308028280C8
:101F9000704700BFFEE7490050EAC12018BF042087
:101FA0004A0D18BF40F0010040F2FF72B2EB515FE2
:101FB00008BF40F00200012808BF052070472DE946
:101FC000F0414F1E00EBC7010446D1E90001154660
:101FD0001E4637F006020DD02A46334603F026FE91
:101FE0007F1E04EBC703D3E9002303F017FC37F08F
:101FF0000602F1D1022F25D0042F13D0062F18BFCF
:10200000BDE8F0812A46334603F010FED4E90A23E6
:1020100003F004FC2A46334603F008FED4E9082303
:1020200003F0FCFB2A46334603F000FED4E9062306
:1020300003F0F4FB2A46334603F0F8FDD4E9042309
:1020400003F0ECFB2A46334603F0F0FDD4E902230B
:1020500003F0E4FB2A46334603F0E8FDD4E900230D
:10206000BDE8F04103F0DABB012204F094BC03F0B8
:10207000D5BB002213461046114603F07FBC00007A
:10208000024A0020110704F086BC000001FDFFFF9A
:1020900030380A2801D201207047002070470146DD
:1020A00000BF70472DE9FE4F06460F4600256846E3
:1020B00001F0EAFB002442E056F8240057F824100F
:1020C000A0EB010ABAF1000F01DB514601E0CAF1B1
:1020D0000001084604F050FA83464FF08F4104F0A7
:1020E00019F980465DF82400002104F0D5F916D0D6
:1020F0005DF82410404604F00DF982464FF07E5101
:1021000004F0A2FB814629F0004A0F48416A50467C
:1021100004F05EFB12D20120A04005430EE00A4805
:10212000C169404604F054FA05D30748016A4046A5
:1021300004F04EFB02D20120A0400543641C032C96
:10214000BADB2846BDE8FE8F4C6A00082DE9F04D49
:102150008D4F21F0004A86B005460C46BA452ADB71
:10216000AAEB070028430AD08848824501DC1AD12F
:10217000CDB106B02846BDE8F04DFFF775BF844AE3
:10218000844B284603F052FD07460E46824A834B95
:102190002846214603F04AFD06B03A463346BDE8DC
:1021A000F04D03F03BBB0120FEF75FFA06B0BDE83F
:1021B000F04DFFF75EBF7A48824542DABAF1795FA7
:1021C0000BDA2846FFF7E7FE042808BFFFF758FFA1
:1021D000284606B02146BDE8F08D2A460B4610463B
:1021E00003F024FD834602466E480E460B46062148
:1021F0007844FFF7E4FE5A46334603F017FD804665
:1022000069488A465A46334604217844FFF7D7FE88
:102210005A46334603F00AFD00223B4603F0FEFA1D
:1022200002460B464046514603F0A8FB2A46234689
:1022300003F0FCFC06B02A462346BDE8F04D03F04F
:10224000EDBA284624F0004100223D463B4603F00B
:10225000EBFD4FF0FF3204F09EFB0646024653486A
:102260000F460B4606217844FFF7A9FE32463B464F
:1022700003F0DCFCCDE900014D4832463B46042129
:102280007844FFF79CFE32463B4603F0CFFC002229
:102290002B4603F0C3FA834602913046394603F0D9
:1022A00015FA804643480D46504517DCDDE900012C
:1022B0005A46029B03F062FB42462B4603F0B6FCF3
:1022C00042462B4603F0AAFA012204F064FB304A8E
:1022D000304B03F09BFE304A304B4CE04FF0000A8D
:1022E00052460B46404603F099FACDE90310524698
:1022F0002B461046194603F099FC32463B4603F044
:1023000093FDDDE9033203F039FB06460F46DDE9B4
:1023100000015A46029B03F031FB834600910122E3
:102320003046394604F037FB194A1A4B03F07CFD5E
:1023300006460F4601224046294604F02CFB5A4629
:10234000009B03F073FC32463B4603F05FFE0646FB
:102350000F4601225046294604F01DFB0E4DDFF8C2
:1023600058802A46434603F05FFD32463B4603F061
:102370005BFD2A46434603F057FD002CD8BF81F091
:10238000004106B0BDE8F08D0000F03F0000F07F96
:10239000075C143326A6913C182D4454FB21F93FC9
:1023A0000000E03F8C540000A254000016540000CE
:1023B0002C5400003333EF3FFB21E93F2DE9F84F68
:1023C00004460D4621F0004000917349814211DC22
:1023D0007249884201DC06D12CB120462946BDE86D
:1023E000F84FFFF741BE6E48002DCCBF6D496E49D6
:1023F000BDE8F88F6D49814211DD6D498142D8BF3A
:102400004FF0FF366DDD20462946FFF7C4FD042856
:1024100008BFFFF735FE20462946BDE8F88F65491D
:10242000654F25F00045814233DD6449814219DD65
:10243000002632464FF080432046294603F0EEF94D
:1024400080468A4601222046294604F0A4FA00224A
:102450003B4603F0DBFD4246534603F08FFA044649
:102460000D463EE001260022BA463B46204629465C
:1024700003F0D4F980460F460022534620462946F1
:1024800003F0C4FD42463B4603F078FA04460D468D
:1024900027E04B4981421BDDDFF828A102260022FC
:1024A00053462046294603F0C1FB00223B4603F079
:1024B000B5F980460F46002253462046294603F0D0
:1024C000A5FD42463B4603F059FA04460D4608E096
:1024D000032622462B4600203B4903F04FFA0446D0
:1024E0000D4622462B461046194603F09FFB8B46AD
:1024F000824602460B4603F099FB074602463348E4
:1025000088460B4606217844FFF759FD52465B4644
:1025100003F08CFB82462E488B463A464346052103
:102520007844FFF74CFD3A46434603F07FFB0246F2
:102530000B46002E504659460CDA03F06FF922463E
:102540002B4603F073FB01B022462B46BDE8F04F4B
:1025500003F06ABC03F062F922462B4603F066FBE7
:102560001C4A7A4402EBC603D3E9002303F04EFD74
:1025700022462B4603F04AFD174A7A4402EBC60373
:10258000D3E9002303F050FC009A002AB8BF81F081
:102590000041BDE8F88F0000000010440000F07F0B
:1025A000182D4454FB21F93FFB21F9BF0000DC3F0B
:1025B0000000203E0000F33F0000F03F0000E63F37
:1025C000008003400000F83F0000F0BF2E520000E2
:1025D000EC5100008A510000525100002DE9F04DED
:1025E0009446CCF1000423F000464CEA0404524F18
:1025F00046EAD4749A46884621F00042BC4206D886
:10260000454240EA050442EAD474BC4204D9BDE81C
:10261000F04D6246FFF72BBDAAF14055A5F17F654D
:1026200055EA0C040BD0022404EAAA74434DDFF8E7
:1026300010E144EAD87452EA000B04D00CE0BDE883
:10264000F04DFFF7BBBE002C14BF012CBDE8F08D90
:10265000022C30D0032C32D056EA0C0B0AD0BE42EA
:1026600020D1BA4209D126F0804622F0804233467A
:10267000114617E000291ADB25E0DFF8C8B0FB445B
:10268000002C04BFDBE90001BDE8F08D012C02BF86
:10269000DBE9000181F00041BDE8F08D022C0AD099
:1026A000032C0CD0BA4212D1B8F1000F0BDA234838
:1026B0002549BDE8F08D28462449BDE8F08D28461F
:1026C0007146BDE8F08D1D482149BDE8F08D921B93
:1026D00012153C2AC4BF19481D490EDCBAF1000F7F
:1026E000BEBF12F13C0F0020014606DB624603F03C
:1026F00045F921F00041FFF761FE002C08BFBDE85D
:10270000F08D012C04BF81F00041BDE8F08D114A2D
:10271000114B022C07D003F079FC2A46BDE8F04D9E
:102720000A4B03F073BC03F071FC2A46BDE8F04D80
:10273000064B03F079BB00000000F07F182D4454D5
:10274000FB2109C0E6500000FB21F9BFFB21094035
:10275000FB21F93F075C143326A6A13C70B5044663
:10276000002516480168204604F06EF80546002151
:10277000284603F02DFF05D24FF04041284604F0D3
:1027800027F80AD30021284604F022F810D24FF08F
:102790008041284603F01CFF0AD20948007820B186
:1027A0004FF42F60FEF770F807E0FEF7D9F804E069
:1027B000214602480068FEF7E1FD70BD04000020DC
:1027C00002000020002001490862704798010020A3
:1027D00003468B4201DA08467047934201DD1046FA
:1027E000FAE71846F8E700002DE9F0410446E078E2
:1027F00000F0C006E07800F03F05607800F00100CE
:1028000098B1EF102846E91705EB5171C910A5EBF7
:10281000C101491C01F0FF080B48006820B10A48BB
:10282000414602683846904700BF607800F00800D3
:1028300030B10548406818B1B011034A5168884763
:102840000020BDE8F08100008801002010B56FF085
:102850000400FEF7A7FF0A4800680A49B0FBF1F040
:10286000094908700846007800EB4001C1EBC01030
:102870004FF6FF7101EAC0000449088010BD000056
:102880000800002000127A00A0000020A200002012
:102890000146114A12884A434FF0E0235A61002250
:1028A0009A611A46126942F001021A6100BF4FF0A4
:1028B000E022106900F001021AB100F48032002A0F
:1028C000F5D04FF0E022126922F001024FF0E02330
:1028D0001A6100229A617047A20000200146114A45
:1028E00012784A434FF0E0235A6100229A611A4657
:1028F000126942F001021A6100BF4FF0E022106934
:1029000000F001021AB100F48032002AF5D04FF035
:10291000E022126922F001024FF0E0231A61002246
:102920009A617047A000002000200C490978012915
:1029300006D0022907D0032908D004290CD108E0C9
:1029400040F0040008E040F0080005E040F001001D
:1029500002E040F0020000BF00BF704765000020A9
:1029600038B5044664B120208DF8000028208DF889
:10297000010030208DF8020038208DF8030004E0BB
:10298000A32204216846FDF7C1FD6A46042140F6F2
:102990009E2002F0BFFC02F0A9F838BD3EB5044607
:1029A00002208DF80000CA208DF80100E3208DF888
:1029B000020009208DF803006A460421682002F015
:1029C000A9FCA3208DF8000004F0400048B1C0200D
:1029D0008DF80100C8208DF80200C2208DF8030098
:1029E00006E0A3208DF801008DF802008DF80300A9
:1029F00004F4C07048B1C4208DF80400CC208DF8D8
:102A00000500C6208DF8060006E0A3208DF804001E
:102A10008DF805008DF80600A3208DF807008DF8CD
:102A200008008DF809006A460A2140F6A72002F046
:102A300071FC04F0030018B120208DF8000002E0C2
:102A4000D8208DF800006A46012140F6B62002F039
:102A500061FC04F0200018B1012000F0ADF802E0A4
:102A6000002000F0A9F804F4C07008B304F48070EA
:102A700060B1B2208DF800008B208DF80100B620E7
:102A80008DF802009B208DF803000BE0B0208DF83C
:102A9000000080208DF80100B4208DF80200902005
:102AA0008DF803006A46042140F6A22002F032FCB1
:102AB00004F0010020B3F8208DF800006A460121DF
:102AC0004FF40B6002F026FCFA21072000F02CFCEA
:102AD000072000F0F3FB012000F013FC642000F05D
:102AE000F3FC4FF4FA7000F002FDC821304800F00A
:102AF000A3FB282000F0BCFB0A2000F0CCFB08E080
:102B0000D8208DF800006A4601214FF40B6002F0D6
:102B100001FC04F0020018B1D9208DF8000002E099
:102B2000D8208DF800006A46012140F23D7002F085
:102B3000F1FB04F0040018B1012000F069F802E094
:102B4000002000F065F804F0100018B10120FFF734
:102B500007FF02E00020FFF703FF44F008001549DB
:102B6000488101F0C3FF00201249887304F040003F
:102B700018B10846807B801D887304F4C07020B1B2
:102B80000C48807B801D0B49887304F0140020B131
:102B90000848807B10300749887304F0030020B197
:102BA0000448807B001D0349887300203EBD00005F
:102BB00009E3CA02880100203EB504466CB10EA1AB
:102BC000D1E900208968CDE9002002916A460921F7
:102BD0004FF4976002F09EFB3EBD0AA2D2E90010BE
:102BE0009268CDE9010200916A4609214FF497608D
:102BF00002F090FBF0E70000B8AAB38DB4980D3551
:102C00005D000000B8AAAAAAB088C3C5C70000002A
:102C100038B5044664B1C0208DF80000C2208DF89C
:102C20000100C4208DF80200C6208DF8030004E0E6
:102C30008B2204216846FDF769FC6A46042140F6B0
:102C4000982002F067FB01F051FF38BD10B5C82392
:102C50004FF48062024940F6F63001F0DBFD10BD12
:102C6000746A00082DE9F04F8DB007468846154676
:102C70009946DDE9166B0024002030806B49887B83
:102C80005A4605A901F092FE18B1601E0DB0BDE8CC
:102C9000F08F6648807A00F01400002867D09DF815
:102CA000140000069DF8151040EA01409DF816102A
:102CB00040EA01209DF81710084328609DF818008D
:102CC00000069DF8191040EA01409DF81A1040EAEC
:102CD00001209DF81B10084368609DF81C00000649
:102CE0009DF81D1040EA01409DF81E1040EA0120A9
:102CF0009DF81F100843A8609DF8200000069DF86D
:102D0000211040EA01409DF8221040EA01209DF880
:102D100023100843E86004F11000C4B228680014CE
:102D20000190686800140290A86800140390E86895
:102D30000014049001984043029901FB010003999B
:102D400001FB0100049901FB010ABAF1706F02DB7B
:102D5000BAF1885F05DD01F0C9FE00203080401E19
:102D600094E7B6F9000040F48070308000BF2F482F
:102D7000807A00F0400020B305A9601C085C095D62
:102D800040EA012000B2A8F8000005A9E01C095C97
:102D900005AAA01C105C41EA002000B2A8F80200BD
:102DA00005A9601D095C201D105C41EA002000B2ED
:102DB000A8F80400A01DC4B2B6F9000040F0080055
:102DC00030801A48408900F4C07008B305A9601C1F
:102DD000085C095D40EA012000B2388005A9E01CCA
:102DE000095C05AAA01C105C41EA002000B27880B2
:102DF00005A9601D095C201D105C41EA002000B29D
:102E0000B880A01DC4B2B6F9000040F07000308058
:102E10000648807A00F0030018B105A90819FFF7E9
:102E2000E3FC484601F086F900202FE788010020E6
:102E300070B588B0064601A801F03EFBBDF804005D
:102E40000021C90341EA5045C4034448007A00F018
:102E5000030056F8200005904048007A00F0040076
:102E600010B10598404205903C48007AC0F3C1007B
:102E700056F8200006903948007A00F0200010B182
:102E80000698404206903548007AC0F3811056F803
:102E9000200007903148008900F4807010B1079835
:102EA000404207900598C117A0FB042301FB0431A1
:102EB00000FB0510810041EA927005900698C11749
:102EC000A0FB042301FB043100FB0510810041EA53
:102ED000927006900798C117A0FB042301FB0431F0
:102EE00000FB0510810041EA927007900598000EE2
:102EF0008DF808000598000C8DF809000598000A67
:102F00008DF80A000598C0B28DF80B000698000EE7
:102F10008DF80C000698000C8DF80D000698000A3C
:102F20008DF80E000698C0B28DF80F000798000EBD
:102F30008DF810000798000C8DF811000798000A12
:102F40008DF812000798C0B28DF8130002AA0C2168
:102F50004FF4257002F0DEF908B070BD8801002042
:102F600030B585B0044616A207CA02AB07C3C82C09
:102F700003DD4FF0FF3005B030BDC82090FBF4F00A
:102F8000401E85B2280A8DF80000E8B28DF80100D5
:102F90006A46022140F2162002F0BCF910B14FF04F
:102FA000FF30E8E702AA0C2140F6C12002F0B2F996
:102FB00010B14FF0FF30DEE7044884810020DAE7EB
:102FC000FEF2ABC4AAF1DFDFBBAFDFDF8801002078
:102FD0001FB504464848007A00F0030054F820006A
:102FE00001904548007A00F0040010B10198404279
:102FF00001904148007AC0F3C10054F820000290CB
:103000003D48007A00F0200010B102984042029042
:103010003948007AC0F3811054F8200003903648F4
:10302000008900F4807010B1039840420390334946
:10303000019880FB0101800F40EA810001902F4937
:10304000029880FB0110820042EA917002902B49A5
:10305000039880FB0110820042EA9170039001986E
:10306000000E8DF800000198000C8DF80100019809
:10307000000A8DF802000198C0B28DF803006A467C
:1030800004214FF4747002F045F918B14FF0FF308D
:1030900004B010BD0298000E8DF800000298000CDC
:1030A0008DF801000298000A8DF802000298C0B263
:1030B0008DF803006A4604214FF4757002F02AF976
:1030C00010B14FF0FF30E3E70398000E8DF80000D9
:1030D0000398000C8DF801000398000A8DF8020097
:1030E0000398C0B28DF803006A4604214FF476704D
:1030F00002F010F9CCE700008801002009E3CA02C1
:1031000010B586B0044647A00068039046A000684A
:10311000029046A00068019045A00068009004F06D
:10312000030003A9085C8DF8140003A8C4F3C101CF
:10313000405C8DF8150003A8C4F38111405C8DF844
:10314000160004F0030002A9085C8DF8100002A824
:10315000C4F3C101405C8DF8110002A8C4F38111D1
:10316000405C8DF8120005AA032140F2264002F0CF
:10317000D1F818B14FF0FF3006B010BD04AA0321FA
:1031800040F22A4002F0C6F810B14FF0FF30F3E7EA
:10319000019805900098049004F0040058B19DF83F
:1031A000140040F001008DF814009DF8100040F06C
:1031B00001008DF8100004F0200058B19DF81500B2
:1031C00040F001008DF815009DF8110040F001005D
:1031D0008DF8110004F4807058B19DF8160040F08D
:1031E00001008DF816009DF8120040F001008DF8E6
:1031F000120005AA03214FF4886002F08BF810B189
:103200004FF0FF30B8E704AA032140F2314002F04A
:1032100081F810B14FF0FF30AEE70648048100207E
:10322000AAE700004CCD6C000CC92C003656760085
:103230002646660088010020F8B505460E464FF484
:103240007A7095FBF0F000FB06F4200E8DF800007C
:10325000200C8DF80100200A8DF80200E0B28DF8F4
:1032600003006A4604214FF4AE7002F053F8F8BD33
:1032700038B50446052094FBF0F084B220128DF896
:103280000000E0B28DF801006A4602214FF4AD70F3
:1032900002F040F838BD38B50446052094FBF0F044
:1032A00084B220128DF80000E0B28DF801006A4669
:1032B00002214FF4AC7002F02DF838BD38B5044649
:1032C0000020009004F0010020B19DF8000040F0C3
:1032D0003000009004F0020020B19DF8000040F0A2
:1032E0000C00009004F0040020B19DF8000040F0B4
:1032F000030000906A4601214FF4A47002F00AF81E
:1033000038BD38B50446012C01DA012402E0042C52
:1033100000DD0424601EC0B200906A46012140F224
:103320004F1001F0F7FF38BD2DE9FC4706460F4668
:1033300006F0070010B1B7F5C86F03DD4FF0FF309E
:10334000BDE8FC87384603F02FF98146594902F061
:10335000E1FF8046684601F089F89DF800000228E8
:1033600006D0042816D0082826D0102848D135E0E9
:103370004FF08D41404603F05FF9814603F0DCF8E1
:1033800084B24D49404603F057F9814603F0D4F822
:1033900085B238E04FF08C41404603F04DF981464C
:1033A00003F0CAF884B24549404603F045F9814626
:1033B00003F0C2F885B226E04FF08B41404603F09F
:1033C0003BF9814603F0B8F884B23D49404603F02A
:1033D00033F9814603F0B0F885B214E04FF08A412A
:1033E000404603F029F9814603F0A6F884B2354936
:1033F000404603F021F9814603F09EF885B202E0D1
:103400004FF0FF309CE700BF20128DF80400E0B2BF
:103410008DF8050028128DF80600E8B28DF8070037
:1034200006F00100A0B101AA02214FF4EA7001F0F8
:1034300071FF10B14FF0FF3082E70DF1060202215B
:103440004FF4927001F066FF10B14FF0FF3077E754
:1034500006F00200A0B101AA02214FF4EC7001F0C5
:1034600059FF10B14FF0FF306AE70DF1060202215B
:103470004FF4947001F04EFF10B14FF0FF305FE752
:1034800006F00400A0B101AA02214FF4EE7001F091
:1034900041FF10B14FF0FF3052E70DF1060202215B
:1034A0004FF4967001F036FF10B14FF0FF3047E750
:1034B000002045E700004843000040460000C045AA
:1034C000000040450000C04438B50446052094FB88
:1034D000F0F085B228128DF80000E8B28DF80100F6
:1034E0006A4602214FF4EF7001F014FF38BD38B581
:1034F0000446052094FBF0F085B228128DF80000F8
:10350000E8B28DF801006A4602214FF4ED7001F037
:1035100001FF38BD10B586B014220DA101A8FCF73B
:10352000C3FF00240DE001A8005D0E49088000BF24
:103530000C48001F008800F040000028F8D0601CF4
:10354000C4B2142CEFDB6420FFF7A2F906B010BD63
:10355000B4EDCEF3D6B8C1EEA3ACC7EBD6D8B7A2C4
:10356000A3A10D0A044400402DE9F04105460026C0
:103570001E488778312F02D0322F31D12BE0002422
:103580000FE01B480068017819480068401C184A81
:1035900010601648005D814201D1701CC6B2601CEB
:1035A000C4B2AC42EDDBAE4212D1012080F31388ED
:1035B00000BF00BF0F48006800F4E0600E490843F8
:1035C000001D0C490860BFF3408F00BF00BFFEE73D
:1035D000FFF7A0FF07E0094909A0FEF79DFA02E006
:1035E000FFF798FF00BF00BFBDE8F081C0000020DA
:1035F000240000200CED00E00000FA05004400402B
:103600002A4341522D4F4B230000000030B585B0B6
:10361000054659488478A4F1310011286FD2DFE8BB
:1036200000F009151F33404E5E6F89A5A5A5A5A51D
:10363000A5A59700FDF794F900205049087050495E
:103640000870504950A0FEF767FA92E0FDF788F93C
:1036500000204A4908704B494DA0FEF75DFA88E00A
:103660004FF42F60FDF710F94FF4FA70FFF710F9DF
:1036700001204249087001214748FEF7ADFB41494E
:1036800046A0FEF749FA74E001203D490870002089
:1036900044490860394908703A4943A0FEF73CFAAA
:1036A00067E001203649087041483E490860002023
:1036B0003249087033493FA0FEF72EFA59E03F48DF
:1036C000008814303D490880084602883CA16846BD
:1036D000FCF7D2FD2B496846FEF71EFA49E0374851
:1036E00000881438354908800846028834A16846A5
:1036F000FCF7C2FD23496846FEF70EFA39E035E0D3
:103700003148008841F29411884203DD4FF4AF60E4
:103710002D4908802C48008864302B4908800846D1
:1037200002882AA16846FCF7A7FD16496846FEF7FD
:10373000F3F91EE001201249087029481949086070
:1037400000200E4908700F4926A0FEF7E5F910E0A9
:1037500001200B49087025481249086000200749DC
:103760000870084922A0FEF7D7F902E0FFF7D2FE61
:1037700000BF00BF05B030BDC00000200200002027
:1037800000000020004400402A55312D4F4B2300FB
:103790002A55322D4F4B2300004800402A55332D27
:1037A0004F4B2300040000202A55342D4F4B23009B
:1037B000000034C32A55352D4F4B2300280000202C
:1037C0006D733A2025640A002A000020657874652C
:1037D000725F73706565643A2025640A000000001A
:1037E0000000B4C22A55392D4F4B23000000B442CB
:1037F0002A55412D4F4B230070B505461248847859
:10380000302C04D0312C0AD0322C18D10FE00020FB
:103810000E4908700E490FA0FEF77EF912E0012054
:103820000A4908700A490DA0FEF776F90AE002205D
:103830000649087006490BA0FEF76EF902E0FFF793
:1038400069FE00BF00BF70BDC00000200100002065
:10385000004400402A47302D4F4B23002A47312D8A
:103860004F4B23002A47322D4F4B230000BF054A00
:10387000128802F04002002AF9D0C2B2014B1B1D8F
:103880001A807047003801407CB5054628494968D0
:10389000087801AB04220D21FDF7E8FB08B10720F1
:1038A0007CBD9DF80700C0F301109DF8041001F0E5
:1038B000E00140EAE1008DF800009DF80700C0F348
:1038C00081009DF8051001F0E00140EAE1008DF86B
:1038D00001009DF8070000F003009DF8061001F0BC
:1038E000E00140EAE1008DF8020000241CE01DF830
:1038F000040018B9002045F8240013E00D4845F8ED
:10390000240006E055F824000B4902F095FE45F826
:1039100024001DF80400401EC0B20DF80400002869
:10392000F0D100BF601CC4B2032CE0DB0020B7E77D
:10393000300000207B14AE3E1D5A843F2DE9F04F2D
:1039400087B005460C46914601208DF810000020F6
:103950008DF81100FE4A1268917CFD4A5268107879
:1039600004AB0222FDF7BCFB20B14FF0FF3007B0E3
:10397000BDE8F08FC820FEF78BFF00208DF8100007
:10398000F34A1268D17BF24A5268107804AB0122E4
:10399000FDF7A6FB10B14FF0FF30E8E7EC4A1268E4
:1039A0005179EB4A5268107804AB0122FDF798FB7D
:1039B00010B14FF0FF30DAE7E54A1268917CE44A33
:1039C0005268107804AB0122FDF78AFB10B14FF06A
:1039D000FF30CCE7DE4A1268D17DDD4A52681078AC
:1039E00004AB0122FDF77CFB10B14FF0FF30BEE7C6
:1039F000D74A12681179D64A5268107804AB01226E
:103A0000FDF76EFB10B14FF0FF30B0E70C208DF8E2
:103A10001000CF4A12681179CD4A5268107804AB71
:103A20000122FDF75DFB10B14FF0FF309FE70F2043
:103A3000FEF72EFFC648806A407A8DF81000C44A0F
:103A400012689178C24A5268107804AB0122FDF7DF
:103A500047FB10B14FF0FF3089E7BD48806A007A1C
:103A60008DF81000BA4A12685178B94A5268107835
:103A700004AB0122FDF734FB10B14FF0FF3076E7C5
:103A8000B9F1000F07D0B248806A807A40F0E000B8
:103A90008DF8100004E0AE48806A807A8DF810003E
:103AA000AB4A12689179AA4A5268107804AB012295
:103AB000FDF716FB10B14FF0FF3058E7B9F1000FDA
:103AC00007D0A348806AC07A40F0E0008DF810006B
:103AD00003E0A048C07A8DF810009D4A1268D179A1
:103AE0009B4A5268107804AB0122FDF7F9FA10B135
:103AF0004FF0FF303BE7B9F1000F02D0C820FEF7CE
:103B0000C7FE40208DF81000914A12681179904A42
:103B10005268107804AB0122FDF7E2FA10B14FF0C1
:103B2000FF3024E778208DF81000894A1268517917
:103B3000874A5268107804AB0122FDF7D1FA10B120
:103B40004FF0FF3013E783498889FEF7A1FE00207C
:103B50008DF810007E4A126851797D4A52681078BB
:103B600004AB0122FDF7BCFA10B14FF0FF30FEE6C6
:103B7000774A1268917A764A5268107804AB02222A
:103B8000FDF774FA10B14FF0FF30F0E69DF8110028
:103B90009DF8101040EA012B0C209BFBF0F0C6B200
:103BA0000020A86068602860A06060602060824695
:103BB00065E0674A1268D17A654A5268107804ABAA
:103BC0000C22FDF753FA10B14FF0FF30CFE69DF80D
:103BD00011009DF8101040EA012000B2ADF8080075
:103BE0009DF813009DF8121040EA012000B2ADF8D4
:103BF0000A009DF815009DF8141040EA012000B25B
:103C0000ADF80C00BDF90810206808442060BDF92B
:103C10000A10606808446060BDF90C10A068084490
:103C2000A0609DF817009DF8161040EA012000B230
:103C3000ADF800009DF819009DF8181040EA012029
:103C400000B2ADF802009DF81B009DF81A1040EA82
:103C5000012000B2ADF80400BDF900102868084446
:103C60002860BDF90210686808446860BDF9041056
:103C7000A8680844A8600AF1010000F0FF0AB245F4
:103C800097DB3448D0F800C02868C117090441EA1E
:103C900010410704624600233846FCF7BCFA32465E
:103CA0000023CDE90201FCF7B6FA28602948D0F8D4
:103CB00000C06868C117090441EA10410704624660
:103CC00000233846FCF7A7FA32460023CDE902016B
:103CD000FCF7A1FA68601F48D0F800C0A868C117B7
:103CE000090441EA10410704624600233846FCF704
:103CF00092FA32460023CDE90201FCF78CFAA86063
:103D00001448D0F804C02168C817000440EA1148DC
:103D10000F046246002338464146FCF77CFA3246DF
:103D20000023CDE90201FCF776FA20600948D0F8BB
:103D300004C06068C117090441EA104107046246E3
:103D400000233846FCF767FA3246002304E00000FF
:103D5000300000204C6A0008CDE90201FCF75BFA54
:103D600060601148D0F804C0A068C117090441EA96
:103D700010410704624600233846FCF74CFA3246ED
:103D80000023CDE90201FCF746FAA060A0680028F4
:103D900004DDA068A0F58030A06003E0A06800F515
:103DA0008030A0600020E2E54C6A00082DE9FC5F4D
:103DB00006460F4600253D494968087801AB0322B5
:103DC0000D21FDF753F910B10720BDE8FC9F9DF8C8
:103DD000040000F01F008DF804009DF8050000F0BD
:103DE0001F008DF805009DF8060000F01F008DF8FB
:103DF0000600002456E056F8240057F82410A0EBE3
:103E0000010BBBF1000F01DB594601E0CBF10001D2
:103E1000084602F0B1FB4FF08F41009002F07AFAB1
:103E2000814601A8005D68B32149086802F0BCFB27
:103E3000834659461F4802F06DFA804604E01E4949
:103E4000404602F0F9FB804601A8005D401EC0B26A
:103E500001A908550028F2D14146484602F05AFA15
:103E600083464FF07E5102F0EFFC82462AF0004B71
:103E70000F488169584602F0ABFC12D20120A040E5
:103E800005430EE00A480169484602F0A1FB05D34C
:103E900007484169484602F09BFC02D20120A0403D
:103EA0000543641C032CA6DB28468EE73000002067
:103EB0004C6A000800B04C4554E3853F10B50446F9
:103EC000204600F00FF80346E01C00F00BF843EA30
:103ED000C00083B2A01D00F005F843EA801083B251
:103EE000184610BD014691F90020002A01DD00208E
:103EF0001EE091F90020002A01DA042018E091F96F
:103F00000120002A01DD012012E091F90120002AA0
:103F100001DA05200CE091F90220002A01DD0220DF
:103F200006E091F90220002A01DA062000E00720CD
:103F30007047000008B500200090FCF733FD82E0D8
:103F40004148007820B102282BD003287AD164E0C0
:103F5000FCF7CCFE3D48008800F4004020B101F0A1
:103F6000FBFA00203949088039480078012813D12C
:103F70003848007801280FD1FCF7F2FC4FF47A7032
:103F8000FEF786FC0120FDF717FB00203149087081
:103F900000213148FDF720FF4FF47A70FEF778FCDE
:103FA00050E02A48008800F4004020B101F0D4FA23
:103FB00000202649088000BF684601F0EBF9002880
:103FC000FAD1FCF793FE2548007898B12148007893
:103FD00030B14FF42F60FCF757FCB420FEF758FCCB
:103FE0000098FEF7BBFB01211D48FDF76AFC00208D
:103FF0001A490870002000901548007801280BD15C
:1040000014480078012807D1FCF7AAFC00201149C8
:1040100008700120FDF7D0FA14E04FF42F60FCF790
:104020000FFC40F6B830FEF733FC4FF42F60FCF77E
:104030002BFC40F6B830FEF72BFCFCF791FCFCF7AC
:1040400055FE00BF00BF7BE7010000201C000020E0
:104050006600002002000020004800402C000020E4
:10406000000400401CB500BF6A4601A901A800F089
:104070009BF80028F8D10021009802F0A9FB04D297
:104080002449009802F0A4FA09D30021009802F014
:104090009FFA0DD22049009802F09AFB08D21F48DF
:1040A0000078401C1D49087001201D4908702DE052
:1040B0001C49009802F08CFB0DD21B49009802F0BD
:1040C00087FA08D215480078401D1449087002206C
:1040D000134908701AE01549009802F079FB04D3DF
:1040E0001349009802F074FA08D20C480078401E78
:1040F0000A49087003200A49087007E00748007859
:10410000401F0649087004200549087003480078DC
:104110001CBD00000000A0400000A0C09E000020C8
:10412000650000200000AA420000BE4200002F43AC
:1041300000002FC37047000070B50446002624F02D
:104140000104184890F8240008B1002070BD1548FB
:10415000807A10B94FF0FF30F8E71248057C807A7A
:104160002040104908740846007CA04202D04FF05D
:10417000FF3600E0002614B90A48007D18B101207E
:1041800001F00EFA02E0002001F00AFA3CB100F062
:10419000ADFC20B1034805744FF0FF30D6E7304640
:1041A000D4E70000300000202DE9F04F99B004461C
:1041B0000D4616464FF07E574FF000084FF00009AD
:1041C0004FF0000A12A813A918AB0EAACDE90010EF
:1041D00014A916A8FEF746FD18B1012019B0BDE8D4
:1041E000F08FBDF84C0000F4807000287ED00E984F
:1041F00002F0C2F983464FF09D4102F08BF807466A
:104200000F9802F0B9F983464FF09D4102F082F811
:104210008046109802F0B0F983464FF09D4102F0BD
:1042200079F88146119802F0A7F983464FF09D4135
:1042300002F070F8824639464FF0804002F0FCF9F7
:104240004946059002F0F8F9414607904FF040408A
:1042500002F0F2F95146059002F0EEF90690079946
:1042600001F0EAFF834601F0BBFFCDE90801FDF74D
:104270006DFF4FF06632544BCDE90A0101F0D6FCD8
:10428000CDE90C0101F098FA206049464FF08040DA
:1042900002F0D2F94946029002F0CEF9414604906C
:1042A0004FF0404002F0C8F94146029002F0C4F9D4
:1042B0000390049902F0C8FA83464FF07E5101F052
:1042C000BBFF059001F08CFFCDE9080139464FF0A6
:1042D000804002F0B1F94146039002F0ADF9494641
:1042E00004904FF0804002F0A7F900E068E05146EA
:1042F000039002F0A1F98346049901F09DFF059017
:1043000001F06EFFCDE90601DDE90823FEF766F94D
:104310004FF066322C4BCDE90A0101F087FCCDE964
:104320000C0101F049FA28605146504602F084F928
:1043300049460490484602F07FF9414603904046C2
:1043400002F07AF939460190384602F075F900908A
:10435000019901F071FF0290039902F075FA83460A
:10436000049902F071FA059001F03AFFCDE90801D5
:104370005146384602F060F949460490404602F042
:104380005BF90390049901F057FF4FF080410590CD
:1043900002F052F9834601F023FFCDE90601DDE981
:1043A0000823FEF71BF94FF06632074BCDE90A01EF
:1043B00001F03CFCCDE90C0101F0FEF9306001E0B8
:1043C00002200BE7002009E766A64C4070B50024E8
:1043D000FCF72CFD00F024F9002841D1782000F0F2
:1043E00031FFC4B20CB1012070BD7820FFF7A4FEEC
:1043F000C4B20CB10220F7E74FF4FA7000F0D4FE1B
:10440000C4B20CB10320EFE7FEF720FCC4B20CB13C
:104410000420E9E71448FFF751FD0546FEF770FE5A
:10442000C4B20CB10520DFE74FF4B870FEF7B6FA5E
:10443000C4B20CB10620D7E76420FEF791FDC4B2E8
:104440000CB10720D0E701F03DF804460CB108207C
:10445000CAE7012000F0A4FDC4B21CB10920C3E7E3
:104460000A20C1E70020BFE75C0000200146114898
:10447000407A30B1012807D0022808D003280CD197
:1044800008E0022008700BE00420087008E0082013
:10449000087005E01020087002E04FF0FF30704710
:1044A00000BF0448C07C18B108784006000E0870B0
:1044B0000020F4E73000002001461348407A30B174
:1044C000012808D002280AD0032810D10BE04FF4AD
:1044D000804008800EE041F69C7008800AE04FF4AE
:1044E0008050088006E04FF40060088002E04FF042
:1044F000FF30704700BF0448C07C10B108884010EE
:1045000008800020F5E70000300000200146024846
:10451000007C0870002070473000002001460F48E2
:10452000007A30B1012807D0022809D003280FD122
:104530000AE0FA2008800EE04FF4FA7008800AE0E2
:104540004FF47A70088006E04FF4FA60088002E0C9
:104550000020088000BF00BF00207047300000200E
:1045600001460E48007A30B1012807D0022808D051
:1045700003280CD108E00A4808600BE009480860ED
:1045800008E00948086005E00848086002E04FF0CC
:10459000FF30704700BF0020FBE700003000002024
:1045A000000003430000834233330342333383412B
:1045B00001461248C07A082817D2DFE800F0170435
:1045C000070A0D101318BC20088013E06220088031
:1045D00010E02A2008800DE0142008800AE00A205C
:1045E000088007E00520088004E000BF00BF00202D
:1045F000088000BF00BF002070470000300000208E
:104600000146064890F8240010B14FF0FF30704783
:104610000248C08908800020F9E70000300000202F
:104620001CB580208DF80000664A1268917C654AAE
:10463000526810786B460122FCF752FD10B14FF022
:10464000FF301CBD6420FEF723F900208DF8000028
:104650005C4A1268917C5B4A526810786B46012272
:10466000FCF73EFD10B14FF0FF30EAE7554A126803
:10467000917D544A526810786B460622FCF7F6FC8E
:1046800010B14FF0FF30DCE79DF80500C007400F88
:104690009DF8031001F0010140EA41009DF801106E
:1046A00001F0010140EA010494B1012C03D1012180
:1046B0004448C17431E0022C03D100214148C17447
:1046C0002BE0214640A0FBF7CBFD4FF0FF30B8E7D1
:1046D0003C4A1268D1783B4A526810786B460122F6
:1046E000FCF7C4FC10B14FF0FF30AAE79DF80000C2
:1046F00000F00F042CB93E48FBF7B2FD4FF0FF303D
:104700009FE7042C06D13BA0FBF7AAFD01212D4811
:10471000C17402E000212B48C174FF212948817235
:10472000FF2028490872FF2126484172C1724FF6C6
:10473000FF71C181FF21017481740121017380F82F
:104740002210002180F82310417501751630016098
:1047500041608160163880F8241080F82510C184EB
:104760004FF4FA6000F064FC10B14FF0FF3068E7DE
:10477000022000F02DFB10B14FF0FF3061E7BC20AC
:1047800000F0D0FC10B14FF0FF305AE74FF4FA7050
:1047900000F00AFD10B14FF0FF3052E77820FFF72C
:1047A000CBFC10B14FF0FF304BE7002000F052FB84
:1047B00010B14FF0FF3044E7002000F043FD00202F
:1047C0003FE7000030000020556E737570706F7207
:1047D00074656420736F6674776172652070726FA0
:1047E00064756374207265762025642E0A000000CB
:1047F0007877000848616C662073656E7369746928
:1048000076697479207061727420666F756E642E9B
:104810000A0000002DE9F04385B005460E4690469B
:104820009946294890F8250020B14FF0FF3005B097
:10483000BDE8F08316B94FF0FF30F8E7002423E01D
:10484000281B102801DD102000E0281B87B2321938
:104850003946204600F05EFD10B14FF0FF30E6E72C
:1048600001AA3946204600F001F910B14FF0FF309F
:10487000DDE730193A4601A9FBF7EAFD10B16FF008
:104880000100D4E7E01984B2AC42D9DB4FEA28201A
:104890008DF8000008F0FF008DF801000A4A126848
:1048A000917E094A526810786B460222FCF718FC88
:1048B00010B14FF0FF30BAE70121034880F825100E
:1048C000A0F826900020B2E73000002038B504465A
:1048D000282C02DD4FF0FF3038BDDCB9002000F09D
:1048E000EBFB00208DF8000007208DF801002E4A18
:1048F0001268917C2C4A526810786B460222FCF7B1
:10490000EFFB10B14FF0FF30E6E7002126480175BC
:104910000020E1E7012000F0CFFB20208DF800000F
:10492000012C06D100208DF80100052000F0FAFBD3
:1049300017E0052C06DC01208DF80100052000F0B1
:10494000F1FB0EE0142C06DC02208DF801000A2099
:1049500000F0E8FB05E003208DF80100142000F0D2
:10496000E1FB9DF80100072101EB8010C0B28DF83A
:1049700001000D4A1268917C0B4A526810786B4610
:104980000222FCF7ADFB10B14FF0FF30A4E7082185
:104990000548817200210173012101750020FFF794
:1049A000CBFB002098E7000030000020F8B504465B
:1049B0000F4616462C4890F8240010B94FF0FF30EF
:1049C000F8BD2948807A10B94FF0FF30F8E7264A41
:1049D0001268917A244A526810786B460222FCF7DA
:1049E00045FB10B14FF0FF30EAE79DF801009DF85C
:1049F000001040EA0125A54203DA00203070401E75
:104A0000DEE7194840684088B5EB600F17DD164AAD
:104A10001268517C144A526810786B460122FCF7E8
:104A200025FB10B14FF0FF30CAE79DF8000000F001
:104A3000100020B100F05AF86FF00100C0E7E2B2B8
:104A4000094B1B68D97A084B5B6818783B46FCF722
:104A50000DFB10B14FF0FF30B2E795FBF4F0401EB4
:104A600030700020ACE7000030000020F8B50446AC
:104A70000D46164616B94FF0FF30F8BD1A48807A39
:104A800010B94FF0FF30F8E720128DF80000E0B2C7
:104A90008DF801009DF801002844134949684989AF
:104AA000884202DD4FF0FF30E7E70F4A1268117EBF
:104AB0000D4A526810786B460222FCF711FB10B1C8
:104AC0004FF0FF30D9E7EAB2074B1B68597D064B20
:104AD0005B6818783346FCF7C9FA10B14FF0FF3025
:104AE000CBE70020C9E700003000002008B570487F
:104AF000807A10B94FF0FF3008BD002000906C4A5A
:104B00001268D17B6A4A526810786B460122FCF722
:104B1000E7FA10B14FF0FF30EEE7654A12685179BD
:104B2000634A526810786B460122FCF7D9FA10B13B
:104B30004FF0FF30E0E75E4A126811795C4A526834
:104B400010786B460122FCF7CBFA10B14FF0FF3022
:104B5000D2E7574890F82400002853D00C2000904A
:104B6000534A12681179524A526810786B460122F2
:104B7000FCF7B6FA10B14FF0FF30BDE73220FDF779
:104B800087FEC02000904A48807A00F0010020B1E2
:104B90009DF8000040F020000090454A126811790D
:104BA000434A526810786B460122FCF799FA10B11B
:104BB0004FF0FF30A0E73E48407C10B1022000904B
:104BC00001E0002000903A4A1268D17B384A5268CE
:104BD00010786B460122FCF783FA10B14FF0FF30DA
:104BE0008AE700200090324A12685179304A5268B0
:104BF00010786B460122FCF773FA002855D04FF06D
:104C0000FF3079E704200090294A12681179284A78
:104C1000526810786B460122FCF762FA10B14FF02F
:104C2000FF3069E72248807C20B92148807A00F073
:104C3000010010B94020009001E0602000901C4A63
:104C4000126811791A4A526810786B460122FCF7F3
:104C500047FA10B14FF0FF304EE73220FDF718FE53
:104C60001348407C10B10120009001E0002000902A
:104C70000F4A1268D17B0E4A526810786B460122A7
:104C8000FCF72EFA10B14FF0FF3035E7084A1268F2
:104C90005179074A52681078054B10330122FCF70E
:104CA0001FFA10B14FF0FF3026E7002024E7000084
:104CB000300000202DE9F04F8DB083460F460220D2
:104CC0000C90424890F8240020B1002000F068F9D0
:104CD000012600E0002603A8FFF720FC05A8FFF747
:104CE000C5FB01A8FFF764FC02A8FFF789FC374861
:104CF00090F80AA004A8FFF709FC002407E00022AE
:104D000039465846FEF71AFE00B902E0641C022C30
:104D1000F5DB00BF022C01D1002528E0002407E0CC
:104D2000012206A909A8FEF709FE00B902E0641CE9
:104D3000022CF5DB00BF022C01D1002517E006A9EB
:104D40003846FDF7AFF900F0FF0809A95846FFF70C
:104D50002DF800F0FF090025B9F1000F01D145F051
:104D60000105B8F1000F01D145F0020500BFFF2099
:104D700016490872FF2115484172C1724FF6FF7142
:104D8000C181FF218172017401210173BDF80C0002
:104D900000F04EF99DF8140000F01AF8BDF8040078
:104DA00000F0C0F9BDF8080000F0FEF9504600F030
:104DB00049FA9DF81000FFF7BFF916B1012000F085
:104DC000EFF828460DB0BDE8F08F0000300000205D
:104DD00038B504461E48807A10B94FF0FF3038BD10
:104DE000022C06D0042C07D0082C08D0102C0CD193
:104DF00008E0002000900BE00820009008E0102060
:104E0000009005E01820009002E04FF0FF30E6E748
:104E100000BF0F48407A9DF80010B0EBE10F01D1C0
:104E20000020DCE70A4A1268D179094A52681078F2
:104E30006B460122FCF754F910B14FF0FF30CEE77A
:104E40009DF80000C110024841720020C7E7000031
:104E50003000002038B504465048807CA04201D183
:104E6000002038BD002C46D04C4A126811794B4ABC
:104E7000526810786B460122FCF7F8F810B14FF039
:104E8000FF30EEE79DF8000020F020000090434A3C
:104E900012681179414A526810786B460122FCF77A
:104EA0001FF910B14FF0FF30DBE70320FDF7F0FCF6
:104EB00002200090394890F8220020B19DF80000AF
:104EC00040F080000090354890F8230020B19DF814
:104ED000000040F030000090304A1268117D2F4AE7
:104EE000526810786B460122FCF7FAF8002851D07E
:104EF0004FF0FF30B5E7294A12681179274A526806
:104F000010786B460122FCF7B1F810B14FF0FF307A
:104F1000A7E72248807A00F0010028B19DF8000040
:104F200040F02000009004E09DF8000020F02000F8
:104F300000901A4A12681179184A526810786B4624
:104F40000122FCF7CDF810B14FF0FF3089E70320C4
:104F5000FDF79EFC114890F8220010B180200090CF
:104F600001E0002000900D4890F8230020B19DF84A
:104F7000000040F030000090084A1268117D074A96
:104F8000526810786B460122FCF7AAF810B14FF076
:104F9000FF3066E701488474002062E7300000209B
:104FA00038B50446214890F82400A04201D10020E1
:104FB00038BD24B31D4890F8250010B94FF0FF30DC
:104FC000F6E7002000F0ECFA0020FFF743FF174956
:104FD000C88C00F0E9F8002000901449496808786E
:104FE0006B4601222321FCF77BF801210F4880F852
:104FF0002410012000F0D4FAFFF778FD13E0002020
:1050000000F0CEFA0948007C009008494968087809
:105010006B4601222321FCF763F80021034880F846
:105020002410FFF763FD0020C2E7000030000020DD
:1050300038B504461F48807A10B94FF0FF3038BDAC
:10504000FA2C09D0B4F5FA7F09D0B4F57A7F09D0EB
:10505000B4F5FA6F0CD108E0002000900BE00820B6
:10506000009008E01020009005E01820009002E079
:105070004FF0FF30E3E700BF0E48007A9DF80010C4
:10508000B0EBE10F01D10020D9E70A4A126891790B
:10509000084A526810786B460122FCF721F810B1DB
:1050A0004FF0FF30CBE79DF80000C01001490872B7
:1050B0000020C4E73000002038B50446184890F8B6
:1050C0002300A04201D1002038BD14B1302000904F
:1050D00001E0002000901248807C20B19DF8000083
:1050E00040F0020000900E4890F8220020B19DF898
:1050F000000040F080000090094A1268117D084AC3
:10510000526810786B460122FBF7EAFF10B14FF0AE
:10511000FF30D9E7024880F823400020D4E70000A0
:105120003000002038B504461E48807A10B94FF090
:10513000FF3038BDBC2C02DB0120009015E0622C52
:1051400002DB0220009010E02A2C02DB03200090FA
:105150000BE0142C02DB0420009006E00A2C02DB9A
:105160000520009001E0062000900E48C07A9DF8CE
:105170000010884201D10020DBE70A4A12689178CA
:10518000084A526810786B460122FBF7A9FF10B15C
:105190004FF0FF30CDE79DF800100248C1720020AB
:1051A000C7E700003000002038B504462448807A64
:1051B00010B94FF0FF3038BD214890F8240010B1ED
:1051C0004FF0FF30F7E71E48007D50B134B1282C76
:1051D00004DCE0B2FFF77AFB0020ECE70020FFF7E9
:1051E00075FB042C01DA042404E0B4F57A7F01DDB8
:1051F0004FF47A744FF47A7090FBF4F0401EC0B212
:1052000000900F4A126851780D4A526810786B4628
:105210000122FBF765FF10B14FF0FF30CBE79DF89F
:105220000000401C4FF47A7191FBF0F081B2044809
:10523000C1810146C9894810FFF774FF0020BAE711
:105240003000002038B5044604F0700010B1012091
:10525000009005E014B10020009001E04020009093
:105260002B4A1268917C2A4A526810786B460122B8
:10527000FBF736FF20B1002125488172481E38BD5A
:105280009DF8000020F040012148017300200090AB
:1052900004F0400020B99DF8000040F004000090A8
:1052A00004F0200020B99DF8000040F002000090BA
:1052B00004F0100020B99DF8000040F001000090BB
:1052C00004F0080020B99DF8000040F0380000907C
:1052D0000F4A1268D17C0E4A526810786B46012240
:1052E000FBF7FEFE20B1002109488172481EC6E787
:1052F00024B1082C02D00020FFF7DEFE044884729F
:10530000002101753220FDF7C3FA0020B7E7000045
:1053100030000020F8B504460D46164616B94FF089
:10532000FF30F8BD1A48807A10B94FF0FF30F8E727
:1053300020128DF80000E0B28DF801009DF8010008
:105340002844134949684989884202DD4FF0FF30FB
:10535000E7E70F4A1268117E0D4A526810786B46D3
:105360000222FBF7BDFE10B14FF0FF30D9E7EAB2E1
:10537000074B1B68597D064B5B6818783346FBF773
:10538000AFFE10B14FF0FF30CBE70020C9E70000BF
:10539000300000202DE9F04F97B004464FF07E55C5
:1053A00000264FF000094FF0000A10A811A916AB13
:1053B0000CAACDE9001012A914A8FDF753FC18B1EE
:1053C000012017B0BDE8F08FBDF8440000F48070F4
:1053D000002870D00C9801F0CFF807464FF09D419F
:1053E00000F098FF05460D9801F0C6F807464FF00B
:1053F0009D4100F08FFF06460E9801F0BDF807466C
:105400004FF09D4100F086FF81460F9801F0B4F8FF
:1054100007464FF09D4100F07DFF824651465046C1
:1054200001F00AF949460590484601F005F9314670
:105430000390304601F000F929460190284601F01A
:10544000FBF80090019900F0F7FE0290039901F03B
:10545000FBF90490059901F0F7F9834600F0C0FECE
:10546000074688465146284601F0E6F8494604902A
:10547000304601F0E1F80390049900F0DDFE4FF0B2
:105480008041059001F0D8F8834600F0A9FE3A4625
:105490004346CDE90601FDF7A1F84FF06632084B0F
:1054A000CDE9080100F0C2FBCDE90A0100F084F962
:1054B000206002E0FFE7022083E7002081E7000090
:1054C00066A64C4070B588B002A905A8FFF7F2FBAC
:1054D0000446032C3ED101A8FFF742F8059801F0DD
:1054E0004BF80646019901F0A7F8054601F008F8C7
:1054F0000590069801F040F80646019901F09CF8E5
:10550000054600F0FDFF0690079801F035F80646C5
:10551000019901F091F8054600F0F2FF079005A807
:10552000FDF756FD6846FEF7C7FFBDF8001002986C
:1055300048430290BDF80010039848430390BDF81B
:10554000001004984843049002A8FDF771FC002065
:1055500008B070BD0120FBE770B50F4804780F4814
:105560004578432D04D0472D06D0552D0ED107E0A8
:105570002046FDF7F9FF0CE02046FEF73DF908E074
:105580002046FEF743F8FDF71DF902E0FDF7C2FFE4
:1055900000BF00BF70BD00001C000020C000002044
:1055A00038B50446214890F82400C0B114B1022057
:1055B000009001E0002000901C4A1268D17B1B4A39
:1055C000526810786B460122FBF78AFD10B14FF04C
:1055D000FF3038BD9DF800101448417423E0134893
:1055E000807A10B94FF0FF30F3E724B10F48407CC8
:1055F00008B10020EDE714B10120009001E0002087
:1056000000900A4A1268D17B084A526810786B46AB
:105610000122FBF765FD10B14FF0FF30D9E79DF88F
:105620000010024841740020D3E700003000002041
:1056300030B587B0054600241DA1D1E90020896856
:10564000CDE9042006911DA2D2E900109268CDE9AF
:1056500002020191ADB100BF0DE004A8005D1A493E
:10566000088000BF1848001F008800F04000002894
:10567000F8D0601CC4B20B2CEFDB6420FDF708F9F6
:1056800014E000240DE001A8005D0F49088000BF70
:105690000D48001F008800F040000028F8D0601C72
:1056A000C4B20B2CEFDB6420FDF7F2F807B030BD7D
:1056B0002A4331525A2D4F4B230D0A002A433152AF
:1056C0005A2D4552230D0A00044400402DE9F041B3
:1056D00006460F4600F0B4FB04000D4618BF01203B
:1056E000284320F00040C0F17F6000F1E040C00F8F
:1056F0000ED0301C18BF0120384320F00040C0F10C
:105700007F6000F1E040C00F04BF0120FAF7ADFF59
:1057100020462946BDE8F08110B586B00446012137
:1057200044F20400FBF7CEFE4FF40070ADF8140015
:1057300003208DF8160018208DF8170005A91C48C5
:10574000FBF73AFA4FF48060ADF8140004208DF8AE
:10575000170005A91648FBF72FFA25208DF8000041
:1057600003208DF801008DF8020001208DF8030060
:105770006846FBF761FD01940020ADF80800ADF824
:105780000A00ADF80C00ADF810000C20ADF80E00CA
:1057900001A90848FCF788FB012240F22551054881
:1057A000FCF75DFB01210348FCF716FB06B010BDBA
:1057B000000801400038014021F00042A2F160528F
:1057C000B2F5801F01F0004328BFD2F17F6C0BD9E6
:1057D0005FEA001C43EAC20242EB507018BF7047F8
:1057E00028BF20F001007047B2F5801FBCBF1846EB
:1057F00070474FEA410C1CF5001F02D2084600F02A
:10580000E2BF70B500F0BCFA00000089FFF7F6BFF8
:105810004FF00040A0F580007047000010B591EAFD
:10582000030F48BF83F0004300F1F883841A71EB43
:10583000030C05D2121943EB0C03001B61EB0C01A6
:10584000DFF824E14FEA1154A4EB135C1EEA430F86
:1058500018BF9EEA445F73D023EA0E03DCF1200EEA
:1058600021EA045143F4801332D322FA0CFE10EBE8
:105870000E0023FA0CFE41EB0E01CCF1200E03FAD0
:105880000EFE10EB0E0051F10001B1F5801FCCF1BE
:10589000200E32D201EB045112FA0EF2BDE8104094
:1058A00058BF7047401C38BF5FEA420218BF7047BC
:1058B000002814BF20F0010041F100014FEA41032C
:1058C00013F5001F38BF7047A1F1C04100F0A6BA20
:1058D000012A43EB0302ACF1200CDCF11F0E32BFB6
:1058E0004FF0000E23FA0CF310EB030041EB0451D0
:1058F000B4EB115FD0D0A1EB045101F58011490840
:105900005FEA300001EB04510ED350F1000038BFC4
:1059100012FA0EFE08D1BDE81040C9E7401C38BF9E
:105920005FEA4202CAD1C3E7BDE810404FEA410333
:1059300013F5001F38BF7047A1F1C04100F06EBAE7
:105940009EEA445F08D011EA5E0FBDE8104004BF34
:1059500001F0004100207047BDE8104070B500F034
:105960000FFA00BF64FBBE3E0000E0FF02494FF0AB
:10597000000000F0DEBF00BF0000F87F2DE9C0414D
:1059800030B4DFF8A0C23CEA111418BF3CEA13148B
:1059900000F0EC8081EA03051CEA111444EAD57496
:1059A00018BF1CEA131500F0C780A4EB05044FF0E4
:1059B000004545EAC12145EAC32341EA505143EA83
:1059C000525304F17F74994204F500344FEAC02029
:1059D0004FEAC22208BF904200F09C804FEA136554
:1059E0000FF24016765D4FEA134506FB05F7C7F147
:1059F000807706FB07F74FEAD737A7FB03687642A5
:105A0000C8F58038A7FB06CE38BFA8F1010807FB10
:105A100008E64FF0000EA6FB028CE6FB03CEDCF19D
:105A2000000CCEF1004E38BFAEF1010EA6FB0C58B3
:105A30004FF000074FF00005E6FB0E87A1FB08C6FC
:105A4000A0FB07CE16EB0E0645F10005E1FB07654E
:105A500015F1E04E7EBFA4F580345FEA46066D4145
:105A600016F1800745F100054FEA17274FEA066651
:105A700047EA0567A6F1DE46B6F1805F4FEA1525D5
:105A80001FD9384624F0010C05EBC471BCF1FE6F40
:105A900001EB0C1102D8F0BCBDE8008124425CBFD0
:105AA00001F5801E9EEAC47F02D4F0BCBDE80081EF
:105AB000244238D4F0BCA1F1C041BDE8004100F05F
:105AC000ADB94FEAD22242EA43524FEAD323A7FBB1
:105AD00002864FEAD02040EA415007FB03661EEAE7
