:020000040800F2
:1000000090120020ED0100080D220008B11C00082C
:1000100019210008B1170008F530000800000000A1
:100020000000000000000000000000004127000860
:10003000291A00080000000075240008552800084F
:10004000070200080702000807020008070200086C
:10005000070200080702000807020008070200085C
:10006000070200080702000807020008070200084C
:10007000070200080702000807020008070200083C
:10008000070200080702000807020008070200082C
:10009000070200080702000807020008070200081C
:1000A000070200080702000807020008070200080C
:1000B000B9280008DD280008070200080702000828
:1000C00007020008070200080702000807020008EC
:1000D00007020008452C0008CD2C0008F92D000867
:1000E00007020008070200080702000807020008CC
:1000F00007020008070200080702000807020008BC
:1001000007020008070200080702000807020008AB
:10011000070200080702000807020008070200089B
:10012000070200080702000807020008070200088B
:1001300000F002F800F04AF80AA090E8000C8244AF
:100140008344AAF10107DA4501D100F03FF8AFF28C
:10015000090EBAE80F0013F0010F18BFFB1A43F0A5
:10016000010318476882000088820000103A24BF0B
:1001700078C878C1FAD8520724BF30C830C144BF0C
:1001800004680C607047000000230024002500264E
:10019000103A28BF78C1FBD8520728BF30C148BFEA
:1001A0000B607047662907F0A481642900F0848001
:1001B000002070471FB500F017FD0400002000214B
:1001C00006F096F9E0601FBD10B510BD00F00CFE02
:1001D0001146FFF7EFFF04F0A5FE00F02AFE03B47E
:1001E000FFF7F2FF03BC03F004F800000948804762
:1001F00009480047FEE7FEE7FEE7FEE7FEE7FEE709
:10020000FEE7FEE7FEE7FEE704480549054A064B20
:1002100070470000592800083101000890020020B2
:1002200090120020900A0020900A0020704710B51C
:100230004C1084EA530404D54042C1F1000138BF98
:10024000491E1B4204D55242C3F1000338BF5B1E56
:1002500000F09BF914F0804F04D04042C1F100013E
:1002600038BF491E14F0004F04D05242C3F10003BE
:1002700038BF5B1E10BD00000FB4044910B503AABF
:10028000029800F07DFC10BC5DF814FBB400002067
:100290000FB41CB5074B06AA7B446946009005982D
:1002A00000F055FC0020694600F064FC1CBC5DF8C1
:1002B00014FB0000D90800002DE9F0410646002497
:1002C00010687529314616A510D0AFF300800028BC
:1002D00002DA404213A507E031688A0701D512A56A
:1002E00002E0490704D511A5012401E0AFF3008025
:1002F00000210A2206F1240709E0B0FBF2FCB0FB62
:10030000F2F302FB1C00303078541846491C0028D8
:10031000F3D123462A463046BDE8F04100F0ACB99F
:10032000000000002D0000002B0000002000000055
:100330002DE9F05F894604464FF0000ADFF824B14A
:10034000FB44C0F820A02046E168884700287DD003
:10035000252806D0D4E901219047206A401C20625C
:10036000F1E700255F462046E168884720280646D9
:1003700007DB312E05D2B81910F8200C08B105435F
:10038000F1E7A80701D525F00405C4F81CA0002753
:10039000C4F818A02A2E09D0304602F023FF38B343
:1003A00004EB8708303EC8F8186019E059F8041BC0
:1003B000204604EB87029161E1688847012F0646D9
:1003C00018D1E069002820DA25F020051DE0D8F8D2
:1003D000180000EB800006EB40003038C8F8180029
:1003E0002046E1688847064602F0FCFE0028EED170
:1003F000012F0AD02E2E08D12046E16888477F1CA5
:100400000646022F45F02005C4DBA069002803DA68
:10041000404245F00105A061E80701D025F0100534
:10042000A6B1A6F14100192802D8203645F400658E
:100430004A463146204625604D46FFF7B3FE60B17F
:10044000012807D0ED1D25F0070000E007E000F1CE
:10045000080978E705F1040975E730467AE7206A6C
:10046000BDE8F09FEA7E000040EA010310B59B075B
:100470000FD1042A0DD310C808C9121F9C42F8D00E
:1004800020BA19BA884201D9012010BD4FF0FF30BF
:1004900010BD1AB1D30703D0521C07E0002010BDD5
:1004A00010F8013B11F8014B1B1B07D110F8013B61
:1004B00011F8014B1B1B01D1921EF1D1184610BD42
:1004C00010B5203AC0F00B80B1E81850203AA0E8EF
:1004D0001850B1E81850A0E81850BFF4F5AF5FEA23
:1004E000027C24BFB1E81850A0E8185044BF18C9D6
:1004F00018C0BDE810405FEA827C24BF51F8043B7D
:1005000040F8043B08BF7047D20728BF31F8023BD0
:1005100048BF11F8012B28BF20F8023B48BF00F864
:10052000012B704702F0FF0343EA032242EA024232
:1005300000F03ABB4FF0000200B5134694469646D1
:10054000203922BFA0E80C50A0E80C50B1F12001E6
:10055000BFF4F7AF090728BFA0E80C5048BF0CC094
:100560005DF804EB890028BF40F8042B08BF7047F2
:1005700048BF20F8022B11F0804F18BF00F8012B64
:100580007047704770477047704753EA020C00F09D
:1005900069802DE9F04B4FF00006002B1FBFB3FA26
:1005A00083F503FA05F424FA05F65E4012BF1643FC
:1005B000B2FA82F502FA05F4C5F120051EBF22FA4F
:1005C00005FC44EA0C04203556EA044C4FEA144476
:1005D00018BF641C4FF000084FF00009904271EB07
:1005E000030C39D3002919BFB1FA81F701FA07F6D4
:1005F000B0FA80F700FA07F6C7F120071EBF20FA0D
:1006000007FC46EA0C062037B6FBF4FCA7EB05070F
:10061000103F07F01F0BCBF120060CFA0BFB2CFA56
:1006200006F644BFB3460026202FA4BF5E464FF017
:10063000000B5BEA060C08BF4FF0010B19EB0B092E
:10064000ABFB027C48EB0608C01B06FB02CC0BFB95
:1006500003CC71EB0C01C1E70B460246414648460C
:10066000BDE8F08B13B54FF000004FF00001AFF381
:100670000080BDE81C4070472DE9F0470D469946C3
:100680009246044600F124080168880604D5E06912
:1006900021F01001216000E00120A84201DD471B8C
:1006A00000E00027A1697A1902EB0900081AA0618D
:1006B0002078C00602D42046AFF30080002608E070
:1006C000D4E901211AF806009047206A401C761CE4
:1006D00020624E45F4DB2078C0060AD52046AFF3F1
:1006E000008006E0D4E9012130209047206A401CB8
:1006F0002062381EA7F10107F4DC07E0D4E90121EC
:1007000018F805009047206A401C2062281EA5F1B9
:100710000105F3DC2046AFF300802078000602D507
:100720000220BDE8F0870120FBE770472DE9FF4F6D
:100730000C461E464FF0FF378BB0D2E90001DDF8C2
:1007400060800A908A46C1F30A5505B93D460021EA
:1007500008464FF00000BAF1000F00F4400005DA3F
:1007600000EB80004FF4400101EA50004FEA90593D
:10077000B9F1010F00DDB9460A9850EA4A000ED0DF
:1007800044F61050A5F2FF3545432F14B8F1000F81
:100790001ED07542291E1EDDC9F100021CE0B8F111
:1007A000010F4FF0000001D0302103E0F24305E0DB
:1007B0002154401CB042FBDB304600220021215472
:1007C0000B99C1F80880C1E900200FB0BDE8F08F97
:1007D000BD1B6D1CDEE74A4600DA694206A800F040
:1007E0008DFA06AB93E8070003AB83E80700504699
:1007F0000A9900F065FB8DE80700A0F500501F384E
:1008000000900398002D09DD42F21F014A4608447A
:1008100003A90390684600F0C4FD08E0A0F500506D
:100820004A461F3803A90390684600F0CEFD8DE8C4
:1008300007000004000C03D04FF0FF30410800E037
:100840001046B8F1000F03D00022009215461EE0BA
:10085000751E05D400F0CCF9303262556D1EF9D505
:10086000B3460122084302D000227F1C04E0207816
:10087000302801D100227F1E002A099786D01DE072
:10088000112D07DA00F0B4F9303262556D1C50EAD0
:100890000102F5D1084302D00098C8B10EE0002152
:1008A000681E05E0235C625C63542254401E491CB0
:1008B0008142F7DBAB46A81B401E0990002004F8DC
:1008C0000B000B98099AC0F80880C0E9002B7CE760
:1008D00011264FF0000859E72DE9F04F88460446ED
:1008E000D21D22F0070191B0D1E90001CDE90A0142
:1008F00002F002FC02460B98C00F01D02D2007E049
:100900002068810701D52B2002E0202101EAC000E8
:10091000032A099001D0072A05DB034641462046F9
:1009200000F0ACF90BE12078800601D5E06900E029
:100930000620B8F1650F814606D0B8F1660F18D0D1
:10094000B8F1670F70D131E00020B9F1110F0090BC
:1009500001DB112301E009F101030AAA01A90CA896
:10096000FFF7E4FEDDE90C70002609F1010583467E
:1009700047E001204B4600904FF000470AAA01A92A
:100980000CA8FFF7D3FEDDE90DB00C995D460026FB
:1009900010B909F101000D18B9EB050003D4C0F13D
:1009A000FF3609F10105A5EB09002BE0B9F1010FB4
:1009B00001DA4FF001090020B9F1110F009048460B
:1009C00001DD112300E003460AAA01A90CA8FFF7E4
:1009D000ADFEDDE90C704D46002683462078000709
:1009E0000AD4AB4500DA5D4601A8012D04DD4119AA
:1009F00011F8011C302907D04F4502DA17F1040F16
:100A000004DA012082460FE06D1EEEE7002F02DCC3
:100A1000ED1B3E4403E0781CA84200DD7D1CB81BA2
:100A200000F1010A4FF000472078000703D4AA45DF
:100A300001DB4FF0FF3A0021B7F1004F0DF1430801
:100A40008DF8431024D002202B23002F01DA7F429F
:100A50002D230A21021EA0F1010000DC5FB197FBEB
:100A6000F1FC97FBF1F201FB1C7C17460CF1300CFA
:100A700008F801CDEEE7A8F101000370218809050F
:100A800001D5452100E06521A0F1010800F8011C15
:100A900009980FA9A1EB0807FF1D00B1012041191A
:100AA00001EBEA70A1693844081A401EA061207861
:100AB000C00602D42046AFF30080099828B1D4E9DB
:100AC00001219047206A401C20622078C00622D570
:100AD0002046AFF300801EE0002E04DBB34502DDAC
:100AE00001A8805D00E03020D4E901219047206A10
:100AF000401C2062761CAAF101005FEA000A0AD1BC
:100B000000F072F8C0680168405CD4E901219047A8
:100B1000206A401C2062281EA5F10105DCDC07E0EC
:100B2000D4E9012118F8010B9047206A401C20628B
:100B3000381EA7F10107F3DC2046AFF30080032045
:100B400011B043E601694A1C02610878704700B59C
:100B50008FB0CDE901310021059105497944CDE9F6
:100B6000031011466846FFF7E3FB0FB000BD00001D
:100B7000E5FFFFFF0A6802F8010B0A6070470000FA
:100B8000074B70B50D467B44FFF7E1FF044628464E
:100B900000F022F910B14FF0FF3070BD204670BD5B
:100BA000D33C00004FF000020429C0F0128010F086
:100BB000030C3FF4C1ACCCF1040CBCF1020F18BF24
:100BC00000F8012BA8BF20F8022BA1EB0C01FFF7C6
:100BD000B3BC5FEAC17C24BF00F8012B00F8012BF5
:100BE00048BF00F8012B70470048704750020020B2
:100BF00030B5B0F10A024FEA900E71F100034EEAEF
:100C0000817EB0EB0E0061EB91014FEA101E4EEABF
:100C1000017E10EB0E0041EB11114FEA102E4EEA4F
:100C2000016E10EB0E0041EB11214FEA104E4EEA1F
:100C3000014E10EB0E0041EB1141401841F1000153
:100C40004FEAD00040EA41704FEAD10110EB800535
:100C50004FEA810444EA907444EB01046D1944EBBB
:100C60000404521BA3414FF0000348BF0A3200D5D1
:100C700030BD401C41F1000130BD00002DE9F041C4
:100C80001F46044603260168072A01F4006004DBBE
:100C900008B116A505E016A503E008B115A500E00A
:100CA00015A521F010002060A069C01EA0610FB141
:100CB000401EA0612046AFF300804FB1D4E901216E
:100CC00038469047206A401C2062C01C206206E023
:100CD000206AFAE7D4E9012115F8010B9047761E46
:100CE000F8D22046AFF30080BDE8F0814E414E00BF
:100CF0006E616E00494E4600696E66002DE9F04750
:100D0000814616468AB0334878440DC88DE80D00F8
:100D100030487844801C03AC0DC884E80D0041F6CF
:100D20009B300844372190FBF1F290FBF1F5A5F1DF
:100D3000800501FB12041B3C02D56442012000E047
:100D40000020DFF890A080460027FA44AAF1BE0AEE
:100D50000DE0E00709D03246684607EB47010AEB91
:100D6000810100F032FB8DE8070064107F1C002C2D
:100D7000EFD1184F7F44AC3F18E0E80714D007EBE1
:100D800004100DF1180A90E80E008AE80E00C06801
:100D9000F04201D198190890324606A903A800F044
:100DA00014FB03AB83E807006D10641C002DE4D135
:100DB00032466946B8F1000F03A802D000F0F1FAFC
:100DC00001E000F002FBC9E90001C9F808200AB0FF
:100DD000BDE8F08750760000007B00F0800070478F
:100DE00000487047300200207546FFF7F9FFAE4615
:100DF00005006946534620F00700854618B020B527
:100E0000FFF702FABDE820404FF000064FF0000760
:100E10004FF000084FF0000B21F00701AC46ACE8A2
:100E2000C009ACE8C009ACE8C009ACE8C0098D460F
:100E300070470446AFF300802046FFF7D0F900006A
:100E40004FF0013C50F8042B51F8043B9A4221D159
:100E5000A2EB0C03934313EACC1317D150F8042BE5
:100E600051F8043B9A4215D1A2EB0C03934313EAC9
:100E7000CC130BD150F8042B51F8043B9A4209D102
:100E8000A2EB0C03934313EACC13DBD04FF000002A
:100E9000704700BFD01A01BAB1FA81F101F0180110
:100EA00022FA01F0CB40C1F12001DBB2C0B2C01A7E
:100EB0002CFA01F3D11A914311EAC311E6D170471C
:100EC0005FEA400C08BF91F0000F4FEA8C234FEA15
:100ED000C12243EA51514FEA1C5018BF00F5F040BF
:100EE0004FEA300018BF41F000415FEA6C5C00F04F
:100EF0002980BCF1FF3F08BF40F080407047130CD1
:100F000006BF12044FF0100C4FF0000C130E04BF7C
:100F100012020CF1080C130F04BF12010CF1040CA7
:100F2000930F04BF92000CF1020CD30F04BF5200C8
:100F30000CF1010C11464FF00002A0F11F00A0EBD4
:100F40000C00704711F0004F08BF704731F00041AE
:100F50003FF4D5AF0B0C06BF09044FF0100C4FF057
:100F6000000C0B0E04BF09020CF1080C0B0F04BFA0
:100F700009010CF1040C8B0F04BF89000CF1020C69
:100F8000CB0F04BF49000CF1010CCCF12003A0EB06
:100F90000C0022FA03F302FA0CF241EA030100F119
:100FA0000100704720F07F4C80EA030023F07F4768
:100FB000ACEB070303F57C5300F0004003F1FF03A3
:100FC0002DE980494FEA154B09B44FEA144325EA4D
:100FD0000B4E24EA03480FF2042606EB13274908B8
:100FE0003E785FEA320203FB0667C7F5000707FB9E
:100FF00006F64FEA54374FEAD64606F1020607FBDB
:10100000066CCCF1005C4FEA1C472CEA074C07FB4E
:1010100006F40CFB06F504EB15464FEA961634BFB2
:1010200000204FF000404FEAD13706FB07FC4FEAA3
:101030001C4C0CFB0BF7D21B03FB0CF761EB0701FD
:101040000CFB0EF7B0EB074072EB17420CFB08F7F6
:1010500034BFA2EB0742B2EB074261EB17414FEA04
:101060000C444FEA910706FB07FC4FEA1C4C0CFBB3
:101070000BF7B0EBC74072EB573203FB0CF734BFF2
:10108000A2EBC742B2EBC74261EB57310CFB0EF744
:10109000B0EBC70072EB57720CFB08F734BFA2EB42
:1010A000C702B2EBC70261EB5771039F4FEA816140
:1010B00041EA921104EBCC044FEAD1374FEA826245
:1010C00006FB07FC42EA90124FEA80604FEA1C4C94
:1010D0000CFB0BF7D21B03FB0CF761EB07010CFBBE
:1010E0000EF7B0EB074072EB17420CFB08F734BF6A
:1010F000A2EB0742B2EB074261EB17414FEA8C5576
:101100004FEA910704EB9C2406FB07FC4FEA1C4CBA
:101110000CFB0BF7B0EBC74072EB573203FB0CF73D
:1011200034BFA2EBC742B2EBC74261EB57310CFBB5
:101130000EF7B0EBC70072EB57720CFB08F734BF29
:10114000A2EBC702B2EBC70261EB577115EB4C255E
:101150004FEA816141EA92114FEA82624FEAD13748
:1011600042EA901206FB07FC44F100044FEA80605B
:101170004FEA1C4C0CFB0BF7D21B03FB0CF761EB8B
:1011800007010CFB0EF7B0EB074072EB17420CFBAC
:1011900008F734BFA2EB0742B2EB074261EB1741FD
:1011A00015EB1C154FEA813141EA92414FEA823238
:1011B00042EA90424FEA80304FEA0C7644F1000454
:1011C00048EA03434EEA0B484FF0000EB2EB080C1E
:1011D00071EB030724BF624639464EEB0E0E4FF00B
:1011E000000B0018524149414BEB0B0BB2EB080CC2
:1011F00071EB03077BF1000B24BF624639464EEBCF
:101200000E0E4FF0000B0018524149414BEB0B0BF7
:10121000B2EB080C71EB03077BF1000B24BF6246B5
:1012200039464EEB0E0E51EA020718BF46F0010692
:1012300016EB0E7655F1000254F1000103D5BDE81E
:101240008901BDE80088BDE88901BDE80048B619FC
:10125000524141EB0101A3F10103704780807F7E81
:101260007D7C7B7A7978777676757473727171701C
:101270006F6E6E6D6C6C6B6A6A69686867666665CE
:101280006464636362616160605F5F5E5E5D5D5C5C
:101290005C5B5B5A5A5959585857575656555555CD
:1012A0005454535352525251515050504F4F4F4E2D
:1012B0004E4D4D4D4C4C4C4B4B4B4A4A4A4949497B
:1012C00048484847474747464646454545444444BD
:1012D000444343434342424242414141002B26D4CE
:1012E000770021D01CB54FEA370703B44FF0100048
:1012F0004FF010014FF000000FBCBDE810400BF1A3
:10130000010BBBF1010F08BF5FEA170722BF12F103
:10131000010211F101014FF0004143F1000300F01F
:10132000004043EA00007047F9D35708DAE746EA7D
:10133000064613F1400F4FEA16461FDD13F1200F4A
:10134000DFBF16430A46002120335B42C8D0C3F1F9
:10135000200746EA064602FA07F74FEA164646EA2B
:101360000706C3F1200722FA03F201FA07F721FA70
:1013700003F14FF0000342EA0702B1E746EA020632
:1013800046EA06464FEA164646EA0106BCBF46EA6A
:101390000646360C4FF000034FF000024FF00001FC
:1013A0009EE72DE9C048934630B491E8380007C85D
:1013B00031EA400C48BF34EA430C03D5FFF7F2FD95
:1013C000FFF78CFFF0BCBDE800882DE9C0489346CC
:1013D00030B491E8380007C810F0804F08BF13F010
:1013E000804F03D100F005F8FFF778FFF0BCBDE8AF
:1013F000008820F07F4780EA030023F07F4C07EB52
:101400000C03A3F57C5300F00040A3F1FE0392F01F
:10141000000F00F0B38095F0000F00F077802DE909
:1014200001494FEA11404FEA144621EA004800FB07
:1014300006FC24EA064708FB06F607FB08F800FB53
:1014400007F718EB06484CEB164C4FEA124B18EB1B
:1014500007484FEA15464CEB174022EA0B4E0BFBB0
:1014600006FC25EA06470EFB06F607FB0EFE0BFB05
:1014700007F71EEB064E4CEB164C4FF000061EEB2A
:10148000074E4CEB174B18EB0B0840F1000018EB24
:101490000E0B58EB000840F100008F1A4FF00001CE
:1014A0003CBFC943661B14BFB5EB040C00213CBF15
:1014B000C943F61B4FEA17444EEA8E0E27EA04454D
:1014C0004FEA1C4704FB07622CEA074C05FB07F7B1
:1014D0000CFB05F604FB0CFC16EB074642EB17422F
:1014E00016EB0C4642EB1C421BEB060658EB0202C5
:1014F000414146EA9E0601D5BDE80189B61952412F
:1015000041EB0101A3F10103BDE801894FEA144554
:101510004FEA114724EA054621EA074C05FB07F488
:1015200006FB07F70CFB06F105FB0CFC11EB074172
:1015300044EB17444FEA124711EB0C4144EB1C44B7
:1015400022EA074C05FB07F206FB07F70CFB06F641
:1015500005FB0CFC16EB074642EB174216EB0C465C
:1015600042EB1C456A1854F1000148BF7047B61998
:10157000524141EB0101A3F10103704795F0000FC7
:1015800037D04FEA11424FEA144721EA024624EAD3
:10159000074C02FB07F106FB07F70CFB06F402FB06
:1015A0000CFC14EB074441EB17414FEA154714EBD1
:1015B0000C4441EB1C4125EA074C02FB07F506FBF6
:1015C00007F70CFB06F602FB0CFC16EB074645EB97
:1015D000174516EB0C4645EB1C42121951F1000160
:1015E00048BF7047B619524141EB0101A3F1010315
:1015F00070474FEA14454FEA114724EA054621EAAD
:10160000074C05FB07F106FB07F70CFB06F24FF052
:10161000000605FB0CFC12EB074241EB174112EBF5
:101620000C4251EB1C4148BF7047921841EB01013D
:10163000A3F10103704700002DE9FE4302F000F81A
:10164000804647480568404605F0AAFB06463246F4
:101650000B4644A16846FEF71BFE4549684601F06B
:10166000E3FA00F02FFB4349404605F091FE0FD20C
:1016700041F2941000F0E6F84FF4FA7002F0F8F836
:1016800001203D49087001213C4801F02DFC64E037
:101690004FF4FA7002F0ECF80021284605F078FECD
:1016A00004D83749284605F073FD09D300212846A0
:1016B00005F06EFD06D83349284605F069FE01D2D3
:1016C000012418E03049284605F062FD06D22F4972
:1016D000284605F05DFE01D202240CE02C49284684
:1016E00005F056FE04D32B49284605F051FD01D2E2
:1016F000032400E0042428480078022822DA012C80
:1017000006D0022C09D0032C0CD0042C19D113E0E4
:10171000174922A001F088FA13E0154920A001F032
:1017200083FA0EE012491FA001F07EFA1A480078F1
:10173000401C1949087004E00D491BA001F074FA1F
:1017400000BF06E00A4919A001F06EFA0020124914
:1017500008704FF4FA7002F08BF8BDE8FE830000C9
:10176000040000204C3A20252E32660A00000000BA
:1017700000440040000048420100002000480040B2
:101780000000A0400000A0C0000082C20000FAC219
:1017900000001B4300001BC3AC00002042310000CE
:1017A0004232000042330000423400004235000063
:1017B00000BFFEE710B504464FF480510D4800F01D
:1017C00073FA4FF400510B4800F06EFA4FF4804169
:1017D000084800F06BFA4FF40041064800F064FA44
:1017E0000021054801F093F9A1B2034801F08DF9F9
:1017F00010BD0000000C01400008004010B5044678
:101800004FF480510D4800F051FA4FF400510B484D
:1018100000F04AFA4FF48041084800F045FA4FF4CE
:101820000041064800F040FAA1B2054801F06FF906
:101830000021034801F069F910BD0000000C0140CF
:101840000008004010B504464FF480510E4800F0E7
:101850002DFA4FF400510C4800F026FA4FF4804165
:10186000094800F023FA4FF40041074800F01CFA41
:10187000A1B2064801F04BF9A4F1640081B203481B
:1018800001F043F910BD0000000C014000080040C9
:1018900070B504460D464FF480510D4800F004FA2F
:1018A0004FF400510A4800F001FA4FF48041084813
:1018B00000F0FCF94FF40041054800F0F5F9A1B241
:1018C000044801F024F9A9B2024801F01EF970BDE4
:1018D000000C01400008004070B504460D464FF46E
:1018E00080510D4800F0E2F94FF400510A4800F031
:1018F000DBF94FF48041084800F0D6F94FF400417D
:10190000054800F0D3F9A1B2044801F000F9A9B2EA
:10191000024801F0FAF870BD000C014000080040D8
:1019200010B54FF480510D4800F0BEF94FF400514E
:101930000A4800F0B9F94FF48041084800F0B4F9C2
:101940004FF40041054800F0AFF90021044801F0D0
:10195000DEF80021024801F0D8F810BD000C01406B
:101960000008004010B500244FF4A06000F088FC8F
:1019700001F05CFF00F0D6F94FF4E13004F068FDAF
:101980004FF4E13001F0E6F94FF4165001F058FA47
:1019900000F04CF8012004F00DFD00F0EBF90023FD
:1019A0004FF4E1521946104600F0B8FB40F2CF2147
:1019B00042F2107000F0A8FF002000F06BFC01F074
:1019C00071FB01F0F9F80CE00A2001F051FF20460C
:1019D000611CCCB2642804DD00240B490BA001F08B
:1019E00023F903F0B7FB0028EED100BF0D4804F047
:1019F00095FB0028FAD140F2E241052000F066F99B
:101A0000FFF78EFF10BD0000004400406D7075367A
:101A10003035305F496E6974206661696C65642099
:101A20000A000000040000207047000010B594B0C8
:101A300039A103C9CDE91201282239A108A8FEF76E
:101A40003FFD41A30FCB04AC0FC443A207CA01ABB7
:101A500007C300240DE012A8005D4249088000BFC2
:101A60004048001F008800F040000028F8D0601CAB
:101A7000C4B2082CEFDB40F2DC5001F0F9FE002488
:101A80000DE008A8005D3749088000BF3548001FF9
:101A9000008800F040000028F8D0601CC4B2282C58
:101AA000EFDB4FF4FA6001F0E3FE00240DE004A840
:101AB000005D2C49088000BF2A48001F008800F004
:101AC00040000028F8D0601CC4B20E2CEFDB4FF4AD
:101AD000487001F0CDFE00240DE001A8005D214911
:101AE000088000BF1F48001F008800F04000002849
:101AF000F8D0601CC4B20C2CEFDB4FF4487001F03E
:101B0000B7FE1849091F18A001F08EF801201B49E3
:101B1000087014B010BD000041542B5253540D0AEC
:101B200041542B43495053544152543D2254435045
:101B3000222C223139322E3136382E34332E33389E
:101B4000222C383038300D0A41542B4349504D4F28
:101B500044453D310D0A000041542B434950534543
:101B60004E440D0A044400407769666920636F6E35
:101B70006E656374656421200A0000002000002067
:101B80002DE9F04102460025002600200023002414
:101B9000002791F803C00CF00F0591F803C00CF07A
:101BA000100CBCF1000F03D091F802C04CEA0505FF
:101BB00091F800C0BCF1000F31D0146800202BE078
:101BC0004FF0010C0CFA00F3B1F800C00CEA030668
:101BD0009E4220D183004FF00F0C0CFA03F7BC4358
:101BE00005FA03FC4CEA040491F803C0BCF1280F89
:101BF00006D14FF0010C0CFA00FCC2F814C00AE048
:101C000091F803C0BCF1480F05D14FF0010C0CFA5C
:101C100000FCC2F810C0401C0828D1D31460B1F8F1
:101C200000C0BCF1FF0F34DD546800202EE000F14D
:101C3000080C4FF0010808FA0CF3B1F800C00CEAE8
:101C400003069E4221D183004FF00F0C0CFA03F7DC
:101C5000BC4305FA03FC4CEA040491F803C0BCF150
:101C6000280F05D100F1080C08FA0CF8C2F814800E
:101C700091F803C0BCF1480F07D100F1080C4FF0F8
:101C8000010808FA0CF8C2F81080401C0828CED3CE
:101C90005460BDE8F0810246002093680B400BB110
:101CA000012000E0002070474161704701617047EA
:101CB00000BFFEE74CF6CC400149086070470000C9
:101CC0000030004010B500F013F810BD70B50546A7
:101CD0000C4645F2555000F01FF8284600F010F869
:101CE000204600F013F800F003F8FFF7E3FF70BDA3
:101CF0004AF6AA2001490860704700000030004001
:101D00000149486070470000003000400149886088
:101D10007047000000300040014908607047000033
:101D20000030004008B50121242000F0B5FB4FF43D
:101D30008070ADF8000010208DF8030003208DF8AE
:101D4000020069460948FFF71BFF4FF480710748FE
:101D5000FFF7ACFF0420ADF8000069460448FFF728
:101D60000FFF04210248FFF7A1FF08BD0008014052
:101D70000014014008B50121082000F08DFB4FF44C
:101D80007040ADF8000010208DF8030003208DF89E
:101D9000020069460448FFF7F3FE4FF47041024821
:101DA000FFF782FF08BD0000000C014010B50020C5
:101DB0000E4908600E48406820F470400C494860A5
:101DC0000846406840F44050486000200949C1F886
:101DD000AC0100F011F801200449086000F00CF893
:101DE00000200449C1F8B00110BD0000B00122423A
:101DF000001001400000224210B5022001F05EFDFB
:101E000010BD000008B50121102000F045FB4FF483
:101E1000C050ADF8000010208DF8030003208DF8AD
:101E2000020069460448FFF7ABFE4FF4C051024878
:101E3000FFF73CFF08BD00000010014010B5002076
:101E40000E4908600E48406820F470400C49486014
:101E50000846406840F44050486001200949C1F8F4
:101E6000AC01FFF7C9FF012004490860FFF7C4FF78
:101E700000200449C1F8B00110BD0000B0012242A9
:101E8000001001400000224270B5054600241648AB
:101E9000406820F47040144948600846406840F4A7
:101EA00000404860002614E0002010490860FFF759
:101EB000A3FF01200E49C1F8B0016006040E0B48D3
:101EC0008438006808B1601CC4B2FFF795FF701C2D
:101ED000C6B2082EE8DB15B9FFF7B0FF01E0FFF747
:101EE00065FF204670BD000000100140B001224295
:101EF0000000224270B504461248406820F4704049
:101F0000104948600846406840F44050486000204E
:101F10000D490860002512E0E0090B49091F08601F
:101F20006006040E01200949C1F8B001FFF764FF03
:101F3000002005490860FFF75FFF681CC5B2082D47
:101F4000EADB70BD00100140B001224200002242D5
:101F500010B50E48406820F470400C4948600846AF
:101F6000406840F440504860012009490860094930
:101F7000C1F8B001FFF740FF002005490860FFF7F6
:101F80003BFF00200349C1F8B00110BD0010014023
:101F9000AC0122420000224210B50E48406820F4F5
:101FA00070400C4948600846406840F44050486022
:101FB0000020094908600949C1F8AC01FFF71CFF7E
:101FC0000120054908600549C1F8AC01FFF714FF7D
:101FD00010BD000000100140B0012242000022426A
:101FE00010B500241448406820F47040124948603D
:101FF0000846406840F40040486001200F490860EE
:10200000FFF7FAFE01200E49C1F8B001FFF7F4FE18
:1020100007E0601CC4B2FA2C03DDFFF7BDFF01200E
:1020200010BD0648803800680028F2D10349091D18
:10203000086000BFF4E7000000100140AC0122423C
:10204000000022422DE9F04106460F4614461D4687
:10205000FFF77EFF002141EA4601C8B2FFF74AFFC1
:10206000FFF7BEFF20B1FFF797FF0120BDE8F08129
:102070003846FFF73FFFFFF7B3FFFFF769FF012186
:1020800001EB4601C8B2FFF735FFFFF7A9FF0DE0EE
:10209000012C04D10020FFF7F7FE287003E0012097
:1020A000FFF7F2FE2870601EC4B26D1C002CEFD149
:1020B000FFF772FF0020D9E72DE9F04105460E46F3
:1020C00017469846FFF744FF002141EA4501C8B290
:1020D000FFF710FFFFF784FF20B1FFF75DFF01203E
:1020E000BDE8F0813046FFF705FFFFF779FF0024D8
:1020F0000CE018F80400FFF7FDFEFFF771FF18B1C0
:10210000FFF74AFF0120EBE7601CC4B2BC42F0DBE2
:10211000FFF742FF0020E3E700BFFEE7F0B589B01C
:1021200007460C4615461E460121042000F0A4F97E
:102130000121092000F0B0F94FF40070ADF8200043
:1021400018208DF8230003208DF8220008A92D48BF
:10215000FFF716FDADF81870ADF814400020ADF88B
:102160001A00ADF8160005A9274800F0D3FC60203E
:10217000ADF804000120ADF806000020ADF80C0019
:10218000ADF80A0001A9204800F074FC08211E489F
:1021900000F0AEFC01211C4800F0E9FB4FF4807018
:1021A000ADF8200018208DF8230003208DF82200C0
:1021B00008A91448FFF7E4FCADF81850ADF8146016
:1021C0000020ADF81A00ADF8160005A90E4800F081
:1021D000A1FC6020ADF804000120ADF8060000204D
:1021E000ADF80C00ADF80A0001A9074800F0E8FBC3
:1021F0000821054800F034FC0121034800F0B7FB3A
:1022000009B0F0BD000C014000080040704700001C
:1022100070B5002100230F22C47804B3154C246844
:1022200004F4E064C4F5E064210AC1F10403CA4087
:10223000447804FA03F184781440214309010E4CD8
:102240000678A155047804F01F050124AC400578F8
:102250006D11AD0005F1E025C5F8004109E00478F5
:1022600004F01F050124AC40044D0678761145F8B2
:10227000264070BD0CED00E000E400E080E100E0ED
:1022800002490143024A1160704700000000FA054C
:102290000CED00E010B5044624210648FEF74AF98B
:1022A000054804494860054888600548C8600548F5
:1022B000086010BD4401002000004040CDCC4C3FE0
:1022C0009A99993FCDCCCC3D2DE9F84F0446216831
:1022D000A06804F0FFFD80462168E06804F08CFFF0
:1022E0008146616804F088FD0746414604F084FD9C
:1022F00005464FF08040A16804F07EFF80462168CB
:1023000004F0E8FD0746616804F076FD06462168A2
:10231000A06804F0DFFD0090A169009804F06CFF54
:1023200081463046616904F067FF8246284621698C
:1023300004F062FF8346216A04F05EFD8046514648
:1023400005F062F80746494604F056FDE061E06991
:1023500020626069A06120696061BDE8F88F0000BB
:102360002DE9F04106460D463949304604F010FF8C
:102370000DD23849284605F00BF808D229463648D0
:1023800005F042F80746354905F033F80546294679
:10239000304605F02EF8324908610846FFF794FFF1
:1023A0002F49C869002104F0F3FE0FD22C48C06900
:1023B00080F00048404604F09FFE87B24FF47A72E6
:1023C0000021384601F0F4F904460BE02449C869BD
:1023D00004F092FE87B24FF47A720021384601F081
:1023E000E7F904461F480078C0B904F63C7084B28F
:1023F0001B4908691C4904F0CBFF04D22146204642
:10240000FFF76AFA21E016490869184904F0C0FE8E
:102410001BD221462046FFF73BFA16E014480088FD
:10242000204484B20E4908690F4904F0B1FF03D279
:102430002046FFF7E3F908E0094908690B4904F071
:10244000A7FE02D22046FFF7B5F9BDE8F0810000F3
:1024500000002FC30000F04200003443000034C3EA
:1024600044010020010000200000A0400000A0C0A6
:10247000620000207047000029B1064AD269024379
:10248000044BDA6104E0034AD2698243014BDA610A
:10249000704700000010024029B1064A92690243C9
:1024A000044B9A6104E0034A92698243014B9A61AA
:1024B000704700000010024030B5002100220024C7
:1024C00000232D4D6D6805F00C0121B1042905D0C4
:1024D000082923D105E0294D056022E0274D05603C
:1024E0001FE0254D6D6805F47012234D6D6805F4ED
:1024F0008034022505EB92421CB9214D55430560FD
:102500000BE01D4D6D6805F400351DB11C4D5543A4
:10251000056002E0194D5543056002E0174D056066
:1025200000BF00BF144D6D6805F0F0010909154D9D
:102530006B5C0568DD4045600F4D6D6805F4E0613A
:10254000090A104D6B5C4568DD4085600A4D6D6879
:1025500005F46051C90A0B4D6B5C4568DD40C560F0
:10256000054D6D6805F44041890B074D6B5CC568EE
:10257000B5FBF3F5056130BD0010024000127A0092
:1025800000093D00BA000020CA000020FEB5064642
:1025900016B1012E78D140E000204F4908704F4815
:1025A00005793DB14E494FA000F03EFB0020524955
:1025B0000880FEBD002406E04849601D085C0DF857
:1025C0000400601CC4B2062CF6DB062404E00020E4
:1025D0000DF80400601CC4B20A2CF8DB3F208DF813
:1025E000090095B93E4A0A21684600F091F800209A
:1025F00041490880002405E01DF804003F490855C2
:10260000601CC4B2062CF7DB06E0354935A000F0AB
:102610000BFB00203849088056E000202E49087046
:102620002E4805793DB12E492EA000F0FDFA00207C
:1026300031490880BDE7002406E02849601D085C98
:102640000DF80400601CC4B2062CF6DB02F006FD97
:102650008DF8060001F058F98DF807002848007839
:102660008DF808003F208DF8090005BB1C4A0A219F
:10267000684600F04DF84FF4FA7001F0F9F80020C8
:102680001D490880002409E019E01C48005D1DF880
:102690000410884200D003E0601CC4B2062CF4DBB6
:1026A00000BF062C0AD102201649087006E00C492A
:1026B0000CA000F0B9FA00200F49088004E0084996
:1026C00008A000F0B1FA00BF00BF0F4841780F4AE0
:1026D00000F01EF800BF6CE7660000200201002039
:1026E000004400405269666420726561642065722E
:1026F000726F72210A0000001E0000206700002097
:1027000065000020000000206F000020004800400D
:102710002DE9F04105460E46174600240CE0295DE0
:10272000384600F0BAFC00BF8021384600F0E8FBD4
:102730000028F9D0601CC4B2B442F0DBBDE8F081DF
:10274000704710B500F002F810BD00000CB5002075
:10275000019000903348006840F4803031490860AF
:1027600000BF3048006800F4003000900198401C21
:102770000190009818B90198B0F5A06FF1D12948DF
:10278000006800F4003010B10120009001E000204A
:1027900000900098012843D12348006840F01000C1
:1027A000214908600846006820F0030008600846D8
:1027B000006840F0020008601A4840681949486003
:1027C0000846406848600846406840F480604860B9
:1027D0000846406820F47C1048600846406840F491
:1027E000E81048600846006840F08070086000BF4C
:1027F0000C48006800F000700028F9D009484068D3
:1028000020F00300074948600846406840F0020095
:10281000486000BF0348406800F00C000828F9D168
:102820000CBD00000010024000200240042808D126
:102830004FF0E021096941F004014FF0E0221161FD
:1028400007E04FF0E021096921F004014FF0E02298
:10285000116170477047000010B51348006840F0E0
:1028600001001149086008464068104908400E49B7
:102870004860084600680E4908400B490860084651
:10288000006820F4802008600846406820F4FE00BC
:1028900048604FF41F008860FFF753FF4FF000605F
:1028A0000449086010BD0000001002400000FFF85D
:1028B000FFFFF6FE08ED00E010B50121880700F0EB
:1028C00065F840B10121880700F04EF80248006821
:1028D000401C0149086010BDA800002010B501216E
:1028E000074800F053F850B1012006490870012153
:1028F000034800F039F80021014800F038F810BD15
:10290000000400402A0000207FB505460C46012146
:102910000220FFF7B1FDADF80850ADF804400020EB
:10292000ADF80A00ADF8060001A90E4800F0F2F873
:102930001D208DF8000001208DF8010003208DF886
:10294000020001208DF803006846FFF761FC0122B8
:102950001146044800F02BF80121024800F007F866
:102960007FBD000000040040CA430282704721B1CD
:10297000028842F00102028004E002884FF6FE73F2
:102980001A40028070470146888C704730B5024675
:10299000002000230024158A05EA0103958905EA31
:1029A000010413B10CB1012000E0002030BD1AB1C8
:1029B00083890B43838102E083898B438381704742
:1029C00070B5002400220023058C4FF6FF663540C9
:1029D0000584028C8388848B4FF68F752C404FF6CC
:1029E000FC752C400D882C434FF6FF552A400D896D
:1029F0004FF6FF7606EA05252A434D8806EA0525A7
:102A00002A43154DA84202D0144DA8421DD14FF2C1
:102A1000FF752A404D894FF6FF7606EA05252A43C1
:102A20004FF6FF352A408D8806EA05252A434EF6E3
:102A3000FF752B404DF6FF752B408D8906EA051575
:102A40002B43CD8906EA05152B4383808483CD88EB
:102A50008587028470BD0000002C014000340140D5
:102A60000A460021818B4FF6F77319401143818389
:102A70007047000070B5002200230024058C4EF63C
:102A8000FF7635400584038C8488828B48F6FF7579
:102A90002A404FF6FF452A400D884FF6FF7606EA9A
:102AA00005252A434DF6FF752B400D8906EA0535AD
:102AB0002B434D8806EA05352B430B4DA84202D027
:102AC0000A4DA84208D14BF6FF752C408D894FF670
:102AD000FF7606EA85152C4384808283CD88A0F892
:102AE0004050038470BD0000002C014000340140C0
:102AF0000A460021818B4FF2FF7319404FF6FF7396
:102B000003EA022319438183704781877047A0F845
:102B100040107047002202881D4B98420ED01D4B7A
:102B200098420BD0B0F1804F08D01B4B984205D093
:102B30001A4B984202D01A4B984204D14FF68F7329
:102B40001A404B881A43174B984207D0164B9842AD
:102B500004D04FF6FF431A40CB881A4302808B887B
:102B600083850B8803850A4B98420BD0094B98420A
:102B700008D00E4B984205D00D4B984202D00D4B19
:102B8000984201D10B7A03860123838270470000AB
:102B9000002C0140003401400004004000080040C7
:102BA000000C0040001000400014004000400140B4
:102BB00000440140004801401FB501210846FFF7CD
:102BC0005BFC40F2E730ADF808004720ADF80400A8
:102BD0000020ADF80A00ADF8060001A94FF08040D2
:102BE000FFF798FF1C208DF8000002208DF80100EF
:102BF00003208DF8020001208DF803006846FFF7DE
:102C000007FB012211469007FFF7D1FE00214FF08C
:102C10008040FFF7ACFE1FBD00BF0A8802F04002F3
:102C2000002AFAD08880704710B503460C4604E0AD
:102C300018782146FFF7F0FF5B1C18780028F7D1C1
:102C400010BD000010B540F225511D4800F065F997
:102C500010B31B4800F01CFAC4B21A48008800F4F4
:102C60000040C8B91748008800F4804060B10A2CC1
:102C700003D000201349088020E01248008840F467
:102C800000401049088019E00D2C06D10D4800883D
:102C900040F480400B49088010E00A480088C0F3E7
:102CA0000D0009490C5407480088401C054908805C
:102CB00008460088C72801DD0020088010BD0000FC
:102CC00000380140B80000206801002010B540F233
:102CD00025511D4800F021F910B31B4800F0D8F928
:102CE000C4B21A48008800F40040C8B917480088E8
:102CF00000F4804060B10A2C03D000201349088002
:102D000020E01248008840F400401049088019E093
:102D10000D2C06D10D48008840F480400B490880F6
:102D200010E00A480088C0F30D0009490C54074818
:102D30000088401C0549088008460088312801DDCC
:102D40000020088010BD0000004400401C0000204E
:102D5000D000002010B586B0044601210420FFF702
:102D60009BFB01214804FFF787FB0420ADF814000A
:102D700003208DF8160018208DF8170005A91C48AF
:102D8000FEF7FEFE0820ADF8140004208DF81700B1
:102D900005A91748FEF7F4FE26208DF80000002054
:102DA0008DF8010003208DF8020001208DF803004A
:102DB0006846FFF72DFA01940020ADF80800ADF841
:102DC0000A00ADF80C00ADF810000C20ADF80E00B4
:102DD00001A9084800F0F0F8012240F22551054809
:102DE00000F0C5F80121034800F07EF806B010BDE0
:102DF000000801400044004010B540F225510C4845
:102E000000F08BF890B10A4800F042F9C4B20948CA
:102E100001780078401C074A107007484454104657
:102E200000780C2802D101200449087010BD000070
:102E3000004800401E000020020100206600002023
:102E400010B586B0044601210820FFF725FB0121BB
:102E50008804FFF711FB4FF48060ADF814000320E5
:102E60008DF8160018208DF8170005A91C48FEF7EC
:102E700087FE4FF40060ADF8140004208DF81700B1
:102E800005A91748FEF77CFE27208DF800000020DA
:102E90008DF8010002208DF8020001208DF803005A
:102EA0006846FFF7B5F901940020ADF80800ADF8C9
:102EB0000A00ADF80C00ADF810000C20ADF80E00C3
:102EC00001A9084800F078F8012240F22551054890
:102ED00000F04DF80121034800F006F806B010BDDF
:102EE000000C01400048004021B1828942F40052A8
:102EF000828104E082894DF6FF731A408281704717
:102F000002460020B1F5007F00D100BF13880B40BE
:102F10000BB1012000E00020704770B5024600248C
:102F200000230025002040F66A16B14200D100BF00
:102F3000C1F3421501F01F03012606FA03F3012D28
:102F400002D19689334006E0022D02D1168A334021
:102F500001E0968A33400C12012606FA04F4168822
:102F6000344013B10CB1012000E0002070BDF0B579
:102F70000346002400260025002040F66A17B942C7
:102F800000D100BF1846C1F3421401F01F0601270B
:102F900007FA06F5012C01D10C3004E0022C01D116
:102FA000103000E014301AB107682F43076002E0C8
:102FB0000768AF430760F0BD2DE9F04786B00546CE
:102FC0000E460024A24600BFA1460027B08900B1EA
:102FD00000BF2F462C8A4CF6FF700440F088044353
:102FE0002C82AC894EF6F3100440B0883189084336
:102FF000718908430443AC81AC8A4FF6FF4004401A
:10300000B0890443AC8201A8FFF756FA1F488742F3
:1030100002D1DDF810A001E0DDF80CA0A88900F4D1
:10302000004040B10AEBCA0000EB0A1031684900C9
:10303000B0FBF1F807E00AEBCA0000EB0A103168B8
:103040008900B0FBF1F86420B8FBF0F0040120091E
:10305000642101FB1089A88900F4004040B13220AE
:1030600000EBC900B0FBF1F000F00700044308E0FA
:10307000322000EB09106421B0FBF1F000F00F00EA
:1030800004432C8106B0BDE8F08700000038014001
:1030900001468888C0F308007047C1F308028280A7
:1030A0007047000008B501211020FFF7F5F98020D6
:1030B000ADF8000003208DF8020010208DF8030009
:1030C00069460B48FEF75CFD80210948FEF7ECFDE0
:1030D0004020ADF8000004208DF803006946044844
:1030E000FEF74EFD40210248FEF7DEFD08BD000060
:1030F0000010014000BFFEE7490050EAC12018BFA0
:1031000004204A0D18BF40F0010040F2FF72B2EBFC
:10311000515F08BF40F00200012808BF052070473A
:103120002DE9F0414F1E00EBC7010446D1E9000133
:1031300015461E4637F006020DD02A46334603F0E8
:103140003BFC7F1E04EBC703D3E9002303F018FA0E
:1031500037F00602F1D1022F25D0042F13D0062F0D
:1031600018BFBDE8F0812A46334603F025FCD4E9B8
:103170000A2303F005FA2A46334603F01DFCD4E97E
:10318000082303F0FDF92A46334603F015FCD4E981
:10319000062303F0F5F92A46334603F00DFCD4E983
:1031A000042303F0EDF92A46334603F005FCD4E985
:1031B000022303F0E5F92A46334603F0FDFBD4E988
:1031C0000023BDE8F04103F0DBB9012204F0C5B9EA
:1031D00003F0D6B9024A0020110704F0BEB900007E
:1031E00001FDFFFF30380A2801D20120704700207E
:1031F0007047014600BF70472DE9FE4F06460F4657
:103200000025684601F038FB002442E056F824000F
:1032100057F82410A0EB010ABAF1000F01DB514668
:1032200001E0CAF10001084603F086FF83464FF033
:103230008F4103F04FFE80465DF82400002103F02B
:103240000BFF16D05DF82410404603F043FE824683
:103250004FF07E5104F0D8F8814629F0004A0F481B
:10326000416A504604F094F812D20120A040054370
:103270000EE00A48C169404603F08AFF05D30748BB
:10328000016A404604F084F802D20120A0400543C0
:10329000641C032CBADB2846BDE8FE8F10760008BC
:1032A0002DE9F84F04460D4621F000400091734986
:1032B000814211DC7249884201DC06D12CB12046E2
:1032C0002946BDE8F84FFFF780BF6E48002DCCBF00
:1032D0006D496E49BDE8F88F6D49814211DD6D4938
:1032E0008142D8BF4FF0FF366DDD20462946FFF7FB
:1032F00003FF042808BFFFF76DFF20462946BDE8FD
:10330000F88F6549654F25F00045814233DD6449FA
:10331000814219DD002632464FF08043204629467F
:1033200003F02EF980468A4601222046294604F001
:1033300014F900223B4603F049FC4246534603F091
:10334000CFF904460D463EE001260022BA463B4630
:103350002046294603F014F980460F4600225346C2
:103360002046294603F032FC42463B4603F0B8F9BA
:1033700004460D4627E04B4981421BDDDFF828A1BA
:103380000226002253462046294603F015FB002260
:103390003B4603F0F5F880460F4600225346204690
:1033A000294603F013FC42463B4603F099F90446D4
:1033B0000D4608E0032622462B4600203B4903F039
:1033C0008FF904460D4622462B461046194603F057
:1033D000F3FA8B46824602460B4603F0EDFA0746A7
:1033E0000246334888460B4606217844FFF798FE8C
:1033F00052465B4603F0E0FA82462E488B463A4638
:10340000434605217844FFF78BFE3A46434603F0D6
:10341000D3FA02460B46002E504659460CDA03F00A
:10342000AFF822462B4603F0C7FA01B022462B46DE
:10343000BDE8F04F03F0BEBB03F0A2F822462B46D6
:1034400003F0BAFA1C4A7A4402EBC603D3E900231C
:1034500003F0BCFB22462B4603F0B8FB174A7A4424
:1034600002EBC603D3E9002303F0A4FB009A002A71
:10347000B8BF81F00041BDE8F88F000000001044A3
:103480000000F07F182D4454FB21F93FFB21F9BFC8
:103490000000DC3F0000203E0000F33F0000F03F52
:1034A0000000E63F008003400000F83F0000F0BF4E
:1034B000BA4E0000784E0000164E0000DE4D0000AF
:1034C0002DE9F04D9446CCF1000423F000464CEA7F
:1034D0000404524F46EAD4749A46884621F00042CA
:1034E000BC4206D8454240EA050442EAD474BC42D4
:1034F00004D9BDE8F04D6246FFF76ABEAAF1405517
:10350000A5F17F6555EA0C040BD0022404EAAA74E5
:10351000434DDFF810E144EAD87452EA000B04D0BE
:103520000CE0BDE8F04DFFF7BBBE002C14BF012C32
:10353000BDE8F08D022C30D0032C32D056EA0C0BB3
:103540000AD0BE4220D1BA4209D126F0804622F0EC
:1035500080423346114617E000291ADB25E0DFF8E8
:10356000C8B0FB44002C04BFDBE90001BDE8F08DCE
:10357000012C02BFDBE9000181F00041BDE8F08DC4
:10358000022C0AD0032C0CD0BA4212D1B8F1000F91
:103590000BDA23482549BDE8F08D28462449BDE8CB
:1035A000F08D28467146BDE8F08D1D482149BDE8E3
:1035B000F08D921B12153C2AC4BF19481D490EDC20
:1035C000BAF1000FBEBF12F13C0F0020014606DB2E
:1035D000624603F085F821F00041FFF761FE002C00
:1035E00008BFBDE8F08D012C04BF81F00041BDE8AB
:1035F000F08D114A114B022C07D003F0E7FA2A464E
:10360000BDE8F04D0A4B03F0E1BA03F0DFFA2A46B9
:10361000BDE8F04D064B03F0CDBA00000000F07F8E
:10362000182D4454FB2109C0724D0000FB21F9BF45
:10363000FB210940FB21F93F075C143326A6A13C7E
:103640002DE9F05F0024A146A34649E080212A48E5
:10365000FEF72CFB142000F031F980212648FEF7FC
:1036600023FB00BF40212448FEF715FB0028F9D0BA
:1036700001218807FFF77BF90BF1010B00BF402107
:103680001D48FEF708FB0128F9D000214FF08040CB
:10369000FFF76DF94FF08040FFF775F98246174943
:1036A000096801EB4102C2EBC1110AEBC10003F052
:1036B0006FF907460022124B03F012F8054602F09C
:1036C0002DFF04464946204603F096FB8146002024
:1036D0004FF08041888409490860322000F0C8F822
:1036E000BBF1050FB2D10749484603F0F3FB04468E
:1036F0002046BDE8F09F000000100140A800002017
:1037000000004D400000A04070B50446002524484C
:103710000168204603F078FE05462248007801281B
:1037200021D10021284603F033FD04D81E49284644
:1037300003F02EFE09D30021284603F029FE0CD801
:103740001A49284603F024FD07D241F26800FEF72B
:1037500079F8642000F08CF821E0214610480068D8
:10376000FEF7FEFD1BE00021284603F011FD04D802
:103770000D49284603F00CFE09D30021284603F02A
:1037800007FE07D80949284603F002FD02D2FEF7DA
:10379000C7F804E0214602480068FEF7E1FD70BD6D
:1037A00004000020010000200000A0C00000A04094
:1037B00003468B4201DA08467047934201DD10460A
:1037C000FAE71846F8E700002DE9F0410446E078F2
:1037D00000F0C006E07800F03F05607800F00100DE
:1037E00098B1EF102846E91705EB5171C910A5EB08
:1037F000C101491C01F0FF080B48006820B10A48CC
:10380000414602683846904700BF607800F00800E3
:1038100030B10548406818B1B011034A5168884773
:103820000020BDE8F08100003401002010B56FF0E9
:103830000400FEF7FBFF0A4800680A49B0FBF1F0FC
:10384000094908700846007800EB4001C1EBC01040
:103850004FF6FF7101EAC0000449088010BD000066
:103860000800002000127A00AE000020B000002006
:103870000146114A12884A434FF0E0235A61002260
:103880009A611A46126942F001021A6100BF4FF0B4
:10389000E022106900F001021AB100F48032002A1F
:1038A000F5D04FF0E022126922F001024FF0E02340
:1038B0001A6100229A617047B00000200146114A47
:1038C00012784A434FF0E0235A6100229A611A4667
:1038D000126942F001021A6100BF4FF0E022106944
:1038E00000F001021AB100F48032002AF5D04FF046
:1038F000E022126922F001024FF0E0231A61002257
:103900009A617047AE00002000200C490978012917
:1039100006D0022907D0032908D004290CD108E0D9
:1039200040F0040008E040F0080005E040F001002D
:1039300002E040F0020000BF00BF704765000020B9
:1039400038B5044664B120208DF8000028208DF899
:10395000010030208DF8020038208DF8030004E0CB
:10396000A32204216846FCF7DDFD6A46042140F6E7
:103970009E2002F093FB01F07DFF38BD3EB504466A
:1039800002208DF80000CA208DF80100E3208DF898
:10399000020009208DF803006A460421682002F025
:1039A0007DFBA3208DF8000004F0400048B1C0204A
:1039B0008DF80100C8208DF80200C2208DF80300A8
:1039C00006E0A3208DF801008DF802008DF80300B9
:1039D00004F4C07048B1C4208DF80400CC208DF8E8
:1039E0000500C6208DF8060006E0A3208DF804002F
:1039F0008DF805008DF80600A3208DF807008DF8DE
:103A000008008DF809006A460A2140F6A72002F056
:103A100045FB04F0030018B120208DF8000002E0FF
:103A2000D8208DF800006A46012140F6B62002F049
:103A300035FB04F0200018B1012000F0ADF802E0E1
:103A4000002000F0A9F804F4C07008B304F48070FA
:103A500060B1B2208DF800008B208DF80100B620F7
:103A60008DF802009B208DF803000BE0B0208DF84C
:103A7000000080208DF80100B4208DF80200902015
:103A80008DF803006A46042140F6A22002F006FBEE
:103A900004F0010020B3F8208DF800006A460121EF
:103AA0004FF40B6002F0FAFAFA21072000F02CFC28
:103AB000072000F0F3FB012000F013FC642000F06D
:103AC000F3FC4FF4FA7000F002FDC821304800F01A
:103AD000A3FB282000F0BCFB0A2000F0CCFB08E090
:103AE000D8208DF800006A4601214FF40B6002F0E7
:103AF000D5FA04F0020018B1D9208DF8000002E0D8
:103B0000D8208DF800006A46012140F23D7002F095
:103B1000C5FA04F0040018B1012000F069F802E0D1
:103B2000002000F065F804F0100018B10120FFF744
:103B300007FF02E00020FFF703FF44F008001549EB
:103B4000488101F097FE00201249887304F040007C
:103B500018B10846807B801D887304F4C07020B1C2
:103B60000C48807B801D0B49887304F0140020B141
:103B70000848807B10300749887304F0030020B1A7
:103B80000448807B001D0349887300203EBD00006F
:103B900009E3CA02340100203EB504466CB10EA10F
:103BA000D1E900208968CDE9002002916A46092107
:103BB0004FF4976002F072FA3EBD0AA2D2E90010FB
:103BC0009268CDE9010200916A4609214FF497609D
:103BD00002F064FAF0E70000B8AAB38DB4980D358E
:103BE0005D000000B8AAAAAAB088C3C5C70000003B
:103BF00038B5044664B1C0208DF80000C2208DF8AD
:103C00000100C4208DF80200C6208DF8030004E0F6
:103C10008B2204216846FCF785FC6A46042140F6A5
:103C2000982002F03BFA01F025FE38BD10B5C823FC
:103C30004FF48062024940F6F63001F0AFFC10BD4F
:103C4000387600082DE9F04F8DB0074688461546B6
:103C50009946DDE9166B0024002030806B49887B93
:103C60005A4605A901F066FD18B1601E0DB0BDE809
:103C7000F08F6648807A00F01400002867D09DF825
:103C8000140000069DF8151040EA01409DF816103A
:103C900040EA01209DF81710084328609DF818009D
:103CA00000069DF8191040EA01409DF81A1040EAFC
:103CB00001209DF81B10084368609DF81C00000659
:103CC0009DF81D1040EA01409DF81E1040EA0120B9
:103CD0009DF81F100843A8609DF8200000069DF87D
:103CE000211040EA01409DF8221040EA01209DF891
:103CF00023100843E86004F11000C4B228680014DF
:103D00000190686800140290A86800140390E868A5
:103D10000014049001984043029901FB01000399AB
:103D200001FB0100049901FB010ABAF1706F02DB8B
:103D3000BAF1885F05DD01F09DFD00203080401E56
:103D400094E7B6F9000040F48070308000BF2F483F
:103D5000807A00F0400020B305A9601C085C095D72
:103D600040EA012000B2A8F8000005A9E01C095CA7
:103D700005AAA01C105C41EA002000B2A8F80200CD
:103D800005A9601D095C201D105C41EA002000B2FD
:103D9000A8F80400A01DC4B2B6F9000040F0080065
:103DA00030801A48408900F4C07008B305A9601C2F
:103DB000085C095D40EA012000B2388005A9E01CDA
:103DC000095C05AAA01C105C41EA002000B27880C2
:103DD00005A9601D095C201D105C41EA002000B2AD
:103DE000B880A01DC4B2B6F9000040F07000308069
:103DF0000648807A00F0030018B105A90819FFF7FA
:103E0000E3FC484601F06CF900202FE73401002064
:103E100070B588B0064601A801F012FABDF804009A
:103E20000021C90341EA5045C4034448007A00F028
:103E3000030056F8200005904048007A00F0040086
:103E400010B10598404205903C48007AC0F3C1008B
:103E500056F8200006903948007A00F0200010B192
:103E60000698404206903548007AC0F3811056F813
:103E7000200007903148008900F4807010B1079845
:103E8000404207900598C117A0FB042301FB0431B1
:103E900000FB0510810041EA927005900698C11759
:103EA000A0FB042301FB043100FB0510810041EA63
:103EB000927006900798C117A0FB042301FB043100
:103EC00000FB0510810041EA927007900598000EF2
:103ED0008DF808000598000C8DF809000598000A77
:103EE0008DF80A000598C0B28DF80B000698000EF8
:103EF0008DF80C000698000C8DF80D000698000A4D
:103F00008DF80E000698C0B28DF80F000798000ECD
:103F10008DF810000798000C8DF811000798000A22
:103F20008DF812000798C0B28DF8130002AA0C2178
:103F30004FF4257002F0B2F808B070BD34010020D3
:103F400030B585B0044616A207CA02AB07C3C82C19
:103F500003DD4FF0FF3005B030BDC82090FBF4F01A
:103F6000401E85B2280A8DF80000E8B28DF80100E5
:103F70006A46022140F2162002F090F810B14FF08C
:103F8000FF30E8E702AA0C2140F6C12002F086F8D3
:103F900010B14FF0FF30DEE7044884810020DAE7FB
:103FA000FEF2ABC4AAF1DFDFBBAFDFDF34010020DC
:103FB0001FB504464848007A00F0030054F820007A
:103FC00001904548007A00F0040010B10198404289
:103FD00001904148007AC0F3C10054F820000290DB
:103FE0003D48007A00F0200010B102984042029053
:103FF0003948007AC0F3811054F820000390364805
:10400000008900F4807010B1039840420390334956
:10401000019880FB0101800F40EA810001902F4947
:10402000029880FB0110820042EA917002902B49B5
:10403000039880FB0110820042EA9170039001987E
:10404000000E8DF800000198000C8DF80100019819
:10405000000A8DF802000198C0B28DF803006A468C
:1040600004214FF4747002F019F818B14FF0FF30CA
:1040700004B010BD0298000E8DF800000298000CEC
:104080008DF801000298000A8DF802000298C0B273
:104090008DF803006A4604214FF4757001F0FEFFAD
:1040A00010B14FF0FF30E3E70398000E8DF80000E9
:1040B0000398000C8DF801000398000A8DF80200A7
:1040C0000398C0B28DF803006A4604214FF476705D
:1040D00001F0E4FFCCE700003401002009E3CA024C
:1040E00010B586B0044647A00068039046A000685B
:1040F000029046A00068019045A00068009004F07E
:10410000030003A9085C8DF8140003A8C4F3C101DF
:10411000405C8DF8150003A8C4F38111405C8DF854
:10412000160004F0030002A9085C8DF8100002A834
:10413000C4F3C101405C8DF8110002A8C4F38111E1
:10414000405C8DF8120005AA032140F2264001F0E0
:10415000A5FF18B14FF0FF3006B010BD04AA03212F
:1041600040F22A4001F09AFF10B14FF0FF30F3E720
:10417000019805900098049004F0040058B19DF84F
:10418000140040F001008DF814009DF8100040F07C
:1041900001008DF8100004F0200058B19DF81500C2
:1041A00040F001008DF815009DF8110040F001006D
:1041B0008DF8110004F4807058B19DF8160040F09D
:1041C00001008DF816009DF8120040F001008DF8F6
:1041D000120005AA03214FF4886001F05FFF10B1BF
:1041E0004FF0FF30B8E704AA032140F2314001F05C
:1041F00055FF10B14FF0FF30AEE7064804810020B4
:10420000AAE700004CCD6C000CC92C003656760095
:104210002646660034010020F8B505460E464FF4E8
:104220007A7095FBF0F000FB06F4200E8DF800008C
:10423000200C8DF80100200A8DF80200E0B28DF804
:1042400003006A4604214FF4AE7001F027FFF8BD69
:1042500038B50446052094FBF0F084B220128DF8A6
:104260000000E0B28DF801006A4602214FF4AD7003
:1042700001F014FF38BD38B50446052094FBF0F07A
:1042800084B220128DF80000E0B28DF801006A4679
:1042900002214FF4AC7001F001FF38BD38B504467F
:1042A0000020009004F0010020B19DF8000040F0D3
:1042B0003000009004F0020020B19DF8000040F0B2
:1042C0000C00009004F0040020B19DF8000040F0C4
:1042D000030000906A4601214FF4A47001F0DEFE55
:1042E00038BD38B50446012C01DA012402E0042C63
:1042F00000DD0424601EC0B200906A46012140F235
:104300004F1001F0CBFE38BD2DE9FC4706460F46A5
:1043100006F0070010B1B7F5C86F03DD4FF0FF30AE
:10432000BDE8FC87384602F01FFF8146594902F07C
:10433000D1FD8046684600F05DFF9DF80000022830
:1043400006D0042816D0082826D0102848D135E0F9
:104350004FF08D41404602F04FFF814602F0CCFE07
:1043600084B24D49404602F047FF814602F0C4FE48
:1043700085B238E04FF08C41404602F03DFF814667
:1043800002F0BAFE84B24549404602F035FF81464C
:1043900002F0B2FE85B226E04FF08B41404602F0BB
:1043A0002BFF814602F0A8FE84B23D49404602F050
:1043B00023FF814602F0A0FE85B214E04FF08A414F
:1043C000404602F019FF814602F096FE84B235495C
:1043D000404602F011FF814602F08EFE85B202E0F7
:1043E0004FF0FF309CE700BF20128DF80400E0B2D0
:1043F0008DF8050028128DF80600E8B28DF8070048
:1044000006F00100A0B101AA02214FF4EA7001F008
:1044100045FE10B14FF0FF3082E70DF10602022198
:104420004FF4927001F03AFE10B14FF0FF3077E791
:1044300006F00200A0B101AA02214FF4EC7001F0D5
:104440002DFE10B14FF0FF306AE70DF10602022198
:104450004FF4947001F022FE10B14FF0FF305FE78F
:1044600006F00400A0B101AA02214FF4EE7001F0A1
:1044700015FE10B14FF0FF3052E70DF10602022198
:104480004FF4967001F00AFE10B14FF0FF3047E78D
:10449000002045E700004843000040460000C045BA
:1044A000000040450000C04438B50446052094FB98
:1044B000F0F085B228128DF80000E8B28DF8010006
:1044C0006A4602214FF4EF7001F0E8FD38BD38B5BF
:1044D0000446052094FBF0F085B228128DF8000008
:1044E000E8B28DF801006A4602214FF4ED7001F048
:1044F000D5FD38BD10B586B014220DA101A8FBF77B
:10450000DFFF00240DE001A8005D0E49088000BF18
:104510000C48001F008800F040000028F8D0601C04
:10452000C4B2142CEFDB6420FFF7A2F906B010BD73
:10453000B4EDCEF3D6B8C1EEA3ACC7EBD6D8B7A2D4
:10454000A3A10D0A044400402DE9F04105460026D0
:104550001E488778312F02D0322F31D12BE0002432
:104560000FE01B480068017819480068401C184A91
:1045700010601648005D814201D1701CC6B2601CFB
:10458000C4B2AC42EDDBAE4212D1012080F31388FD
:1045900000BF00BF0F48006800F4E0600E49084308
:1045A000001D0C490860BFF3408F00BF00BFFEE74D
:1045B000FFF7A0FF07E0094909A0FEF735FB02E07D
:1045C000FFF798FF00BF00BFBDE8F081D0000020DA
:1045D000240000200CED00E00000FA05004400403B
:1045E0002A4341522D4F4B230000000030B585B0C7
:1045F00005465F488478A4F13100112877D2DFE8BE
:1046000000F0091926354250637794B0B0B0B0B0CD
:10461000B0B0A200FDF784F9002056490870564951
:1046200056A0FEF701FB4FF4FA70FFF721F9FDF7F2
:1046300003F899E0FDF774F900204E4908704E49DF
:1046400050A0FEF7F1FA6420FFF712F98CE041F276
:104650006800FDF7F7F801204649087046494BA06D
:10466000FEF7E2FA6420FFF703F97DE000204949F4
:10467000086040490870404947A0FEF7D5FA642019
:10468000FFF7F6F870E046484249086000203949D3
:104690000870394943A0FEF7C7FA6420FFF7E8F82D
:1046A00062E0424800881430404908800846028889
:1046B0003FA16846FBF7ECFD2F496846FEF7B4FAC8
:1046C0006420FFF7D5F84FE03848008814383749A0
:1046D00008800846028836A16846FBF7D9FD2649BE
:1046E0006846FEF7A1FA6420FFF7C2F83CE038E024
:1046F0003148008841F29411884203DD40F6C4102D
:104700002D4908802C48008864302B4908800846D1
:1047100002882AA16846FBF7BBFD17496846FEF7E9
:1047200083FA6420FFF7A4F81EE0294819490860BD
:10473000002010490870104926A0FEF775FA642081
:10474000FFF796F810E02548124908600020094953
:104750000870094922A0FEF767FA6420FFF788F87D
:1047600002E0FFF7C7FE00BF00BF05B030BD00008C
:10477000D000002001000020004400402A55312DC7
:104780004F4B23002A55322D4F4B23002A55332DF2
:104790004F4B2300040000202A55342D4F4B23009B
:1047A000000034C32A55352D4F4B2300280000202C
:1047B0006D733A2025640A006200002065787465F4
:1047C000725F73706565643A2025640A000000001A
:1047D0000000B4C22A55392D4F4B23000000B442CB
:1047E0002A55412D4F4B230070B505461248847859
:1047F000302C04D0312C0AD0322C18D10FE00020FC
:104800000E4908700E490FA0FEF70EFA12E00120C3
:104810000A4908700A490DA0FEF706FA0AE00220CC
:104820000649087006490BA0FEF7FEF902E0FFF703
:1048300061FE00BF00BF70BDD0000020000000205E
:10484000004400402A47302D4F4B23002A47312D8A
:104850004F4B23002A47322D4F4B230000BF054A00
:10486000128802F04002002AF9D0C2B2014B1B1D8F
:104870001A807047003801407CB5054628494968D0
:10488000087801AB04220D21FDF7DCFB08B10720FD
:104890007CBD9DF80700C0F301109DF8041001F0E5
:1048A000E00140EAE1008DF800009DF80700C0F348
:1048B00081009DF8051001F0E00140EAE1008DF86B
:1048C00001009DF8070000F003009DF8061001F0BC
:1048D000E00140EAE1008DF8020000241CE01DF830
:1048E000040018B9002045F8240013E00D4845F8ED
:1048F000240006E055F824000B4902F07DFC45F841
:1049000024001DF80400401EC0B20DF80400002869
:10491000F0D100BF601CC4B2032CE0DB0020B7E77D
:104920002C0000207B14AE3E1D5A843F2DE9F04F31
:1049300087B005460C46914601208DF810000020F6
:104940008DF81100FE4A1268917CFD4A5268107879
:1049500004AB0222FDF7B0FB20B14FF0FF3007B0EF
:10496000BDE8F08FC820FEF783FF00208DF810000F
:10497000F34A1268D17BF24A5268107804AB0122E4
:10498000FDF79AFB10B14FF0FF30E8E7EC4A1268F0
:104990005179EB4A5268107804AB0122FDF78CFB89
:1049A00010B14FF0FF30DAE7E54A1268917CE44A33
:1049B0005268107804AB0122FDF77EFB10B14FF076
:1049C000FF30CCE7DE4A1268D17DDD4A52681078AC
:1049D00004AB0122FDF770FB10B14FF0FF30BEE7D2
:1049E000D74A12681179D64A5268107804AB01226E
:1049F000FDF762FB10B14FF0FF30B0E70C208DF8EF
:104A00001000CF4A12681179CD4A5268107804AB71
:104A10000122FDF751FB10B14FF0FF309FE70F204F
:104A2000FEF726FFC648806A407A8DF81000C44A17
:104A300012689178C24A5268107804AB0122FDF7DF
:104A40003BFB10B14FF0FF3089E7BD48806A007A28
:104A50008DF81000BA4A12685178B94A5268107835
:104A600004AB0122FDF728FB10B14FF0FF3076E7D1
:104A7000B9F1000F07D0B248806A807A40F0E000B8
:104A80008DF8100004E0AE48806A807A8DF810003E
:104A9000AB4A12689179AA4A5268107804AB012295
:104AA000FDF70AFB10B14FF0FF3058E7B9F1000FE6
:104AB00007D0A348806AC07A40F0E0008DF810006B
:104AC00003E0A048C07A8DF810009D4A1268D179A1
:104AD0009B4A5268107804AB0122FDF7EDFA10B141
:104AE0004FF0FF303BE7B9F1000F02D0C820FEF7CE
:104AF000BFFE40208DF81000914A12681179904A4B
:104B00005268107804AB0122FDF7D6FA10B14FF0CD
:104B1000FF3024E778208DF81000894A1268517917
:104B2000874A5268107804AB0122FDF7C5FA10B12C
:104B30004FF0FF3013E783498889FEF799FE002084
:104B40008DF810007E4A126851797D4A52681078BB
:104B500004AB0122FDF7B0FA10B14FF0FF30FEE6D2
:104B6000774A1268917A764A5268107804AB02222A
:104B7000FDF768FA10B14FF0FF30F0E69DF8110034
:104B80009DF8101040EA012B0C209BFBF0F0C6B200
:104B90000020A86068602860A06060602060824695
:104BA00065E0674A1268D17A654A5268107804ABAA
:104BB0000C22FDF747FA10B14FF0FF30CFE69DF819
:104BC00011009DF8101040EA012000B2ADF8080075
:104BD0009DF813009DF8121040EA012000B2ADF8D4
:104BE0000A009DF815009DF8141040EA012000B25B
:104BF000ADF80C00BDF90810206808442060BDF92C
:104C00000A10606808446060BDF90C10A068084490
:104C1000A0609DF817009DF8161040EA012000B230
:104C2000ADF800009DF819009DF8181040EA012029
:104C300000B2ADF802009DF81B009DF81A1040EA82
:104C4000012000B2ADF80400BDF900102868084446
:104C50002860BDF90210686808446860BDF9041056
:104C6000A8680844A8600AF1010000F0FF0AB245F4
:104C700097DB3448D0F800C02868C117090441EA1E
:104C800010410704624600233846FBF7D0FA32464B
:104C90000023CDE90201FBF7CAFA28602948D0F8C1
:104CA00000C06868C117090441EA10410704624660
:104CB00000233846FBF7BBFA32460023CDE9020158
:104CC000FBF7B5FA68601F48D0F800C0A868C117A4
:104CD000090441EA10410704624600233846FBF705
:104CE000A6FA32460023CDE90201FBF7A0FAA8603C
:104CF0001448D0F804C02168C817000440EA1148DD
:104D00000F046246002338464146FBF790FA3246CC
:104D10000023CDE90201FBF78AFA20600948D0F8A8
:104D200004C06068C117090441EA104107046246E3
:104D300000233846FBF77BFA3246002304E00000EC
:104D40002C00002010760008CDE90201FBF76FFA75
:104D500060601148D0F804C0A068C117090441EA96
:104D600010410704624600233846FBF760FA3246DA
:104D70000023CDE90201FBF75AFAA060A0680028E1
:104D800004DDA068A0F58030A06003E0A06800F515
:104D90008030A0600020E2E5107600082DE9FC5F7D
:104DA00006460F4600253D494968087801AB0322B5
:104DB0000D21FDF747F910B10720BDE8FC9F9DF8D4
:104DC000040000F01F008DF804009DF8050000F0BD
:104DD0001F008DF805009DF8060000F01F008DF8FB
:104DE0000600002456E056F8240057F82410A0EBE3
:104DF000010BBBF1000F01DB594601E0CBF10001D3
:104E0000084602F099F94FF08F41009002F062F8E5
:104E1000814601A8005D68B32149086802F0A4F941
:104E2000834659461F4802F055F8804604E01E4963
:104E3000404602F0E1F9804601A8005D401EC0B284
:104E400001A908550028F2D14146484602F042F82F
:104E500083464FF07E5102F0D7FA82462AF0004B8B
:104E60000F488169584602F093FA12D20120A040FF
:104E700005430EE00A480169484602F089F905D366
:104E800007484169484602F083FA02D20120A04057
:104E90000543641C032CA6DB28468EE72C0000206B
:104EA0001076000800B04C4554E3853F10B5044629
:104EB000204600F00FF80346E01C00F00BF843EA30
:104EC000C00083B2A01D00F005F843EA801083B251
:104ED000184610BD014691F90020002A01DD00208E
:104EE0001EE091F90020002A01DA042018E091F96F
:104EF0000120002A01DD012012E091F90120002AA1
:104F000001DA05200CE091F90220002A01DD0220DF
:104F100006E091F90220002A01DA062000E00720CD
:104F20007047000008B5002400200090FCF71AFD2F
:104F300085E04348007820B1012816D002287DD1B1
:104F400063E0FCF7BFFE3F48008800F4004020B15A
:104F500001F0C6F900203B4908803B480078012851
:104F600002D10020FDF712FB68E0FCF7ABFE3548EC
:104F7000008800F4004020B101F0B2F9002031496E
:104F8000088000BF684601F0C9F80028FAD12F4810
:104F9000007808B32E490978012910D12046611CF8
:104FA000CCB2C11700EB91718910A0EB810131B92E
:104FB0000098FEF7A9FB642C07D1002405E02448E3
:104FC000007810B90098FEF79FFB01212148FDF7FA
:104FD000CEFC00201D4908701B480078012813D121
:104FE0001B48007801280FD1FCF79AFC4FF47A7027
:104FF000FEF73EFC0120FDF7C9FA002014490870B5
:1050000000211548FDF770FF18E0FCF75BFE41F248
:1050100068010846FCF73CFC4FF4FA60FEF728FCF8
:1050200041F26800FCF70EFC40F6B830FEF720FCB9
:10503000FCF776FC00200249087000BF00BF78E74B
:10504000000000201C000020660000202A00002034
:1050500001000020000400400048004010B518483E
:1050600004681849204602F093F908D216492046F0
:1050700002F08EF803D20420144908701EE014498F
:10508000204602F085F904D31249204602F080F848
:1050900003D203200D49087010E00F49204602F0AA
:1050A00077F908D20D49204602F072F803D20220A7
:1050B0000649087002E0012004490870002010BD74
:1050C0000400002000008C420000DC42650000204B
:1050D00000002043000020C30000DCC200008CC29E
:1050E0007047000070B50446002624F001041848FB
:1050F00090F8240008B1002070BD1548807A10B9DE
:105100004FF0FF30F8E71248057C807A20401049C4
:1051100008740846007CA04202D04FF0FF3600E041
:10512000002614B90A48007D18B1012001F0FAF8F0
:1051300002E0002001F0F6F83CB100F09BFB20B14A
:10514000034805744FF0FF30D6E73046D4E700003F
:105150002C00002070B50024FCF754FE00F024F968
:10516000002841D1782000F031FFC4B20CB10120F9
:1051700070BD7820FFF7B6FFC4B20CB10220F7E78C
:105180004FF4FA7000F0D4FEC4B20CB10320EFE784
:10519000FEF74CFDC4B20CB10420E9E71448FFF758
:1051A00085FE0546FEF79CFFC4B20CB10520DFE783
:1051B0004FF4B870FEF7E2FBC4B20CB10620D7E79B
:1051C0006420FEF7BDFEC4B20CB10720D0E701F0A9
:1051D0003DF804460CB10820CAE7012000F0A4FD08
:1051E000C4B21CB10920C3E70A20C1E70020BFE711
:1051F0005800002001461148407A30B1012807D0FC
:10520000022808D003280CD108E0022008700BE027
:105210000420087008E00820087005E010200870DD
:1052200002E04FF0FF30704700BF0448C07C18B167
:1052300008784006000E08700020F4E72C000020DB
:1052400001461348407A30B1012808D002280AD01C
:10525000032810D10BE04FF4804008800EE041F6A7
:105260009C7008800AE04FF48050088006E04FF4FC
:105270000060088002E04FF0FF30704700BF044834
:10528000C07C10B10888401008800020F5E70000BD
:105290002C00002001460248007C08700020704766
:1052A0002C00002001460F48007A30B1012807D0B9
:1052B000022809D003280FD10AE0FA2008800EE066
:1052C0004FF4FA7008800AE04FF47A70088006E024
:1052D0004FF4FA60088002E00020088000BF00BFA1
:1052E000002070472C00002001460E48007A30B1A3
:1052F000012807D0022808D003280CD108E00A486A
:1053000008600BE00948086008E00948086005E00B
:105310000848086002E04FF0FF30704700BF0020EF
:10532000FBE700002C000020000003430000834244
:10533000333303423333834101461248C07A08288D
:1053400017D2DFE800F01704070A0D101318BC206D
:10535000088013E06220088010E02A2008800DE019
:10536000142008800AE00A20088007E00520088051
:1053700004E000BF00BF0020088000BF00BF002085
:10538000704700002C0000200146064890F82400D9
:1053900010B14FF0FF3070470248C08908800020EC
:1053A000F9E700002C0000201CB580208DF80000DB
:1053B000664A1268917C654A526810786B460122F1
:1053C000FCF77AFE10B14FF0FF301CBD6420FEF7F1
:1053D0004FFA00208DF800005C4A1268917C5B4A0D
:1053E000526810786B460122FCF766FE10B14FF050
:1053F000FF30EAE7554A1268917D544A52681078A6
:105400006B460622FCF71EFE10B14FF0FF30DCE7C2
:105410009DF80500C007400F9DF8031001F0010141
:1054200040EA41009DF8011001F0010140EA010449
:1054300094B1012C03D101214448C17431E0022C04
:1054400003D100214148C1742BE0214640A0FAF766
:1054500013FF4FF0FF30B8E73C4A1268D1783B4A5F
:10546000526810786B460122FCF7ECFD10B14FF04A
:10547000FF30AAE79DF8000000F00F042CB93E4869
:10548000FAF7FAFE4FF0FF309FE7042C06D13BA05D
:10549000FAF7F2FE01212D48C17402E000212B48E9
:1054A000C174FF2129488172FF2028490872FF2119
:1054B00026484172C1724FF6FF71C181FF2101740C
:1054C00081740121017380F82210002180F82310DB
:1054D000417501751630016041608160163880F8B1
:1054E000241080F82510C1844FF4FA6000F064FCA9
:1054F00010B14FF0FF3068E7022000F02DFB10B133
:105500004FF0FF3061E7BC2000F0D0FC10B14FF04D
:10551000FF305AE74FF4FA7000F00AFD10B14FF077
:10552000FF3052E77820FFF7DDFD10B14FF0FF307C
:105530004BE7002000F052FB10B14FF0FF3044E782
:10554000002000F043FD00203FE700002C00002079
:10555000556E737570706F7274656420736F6674C6
:10556000776172652070726F6475637420726576FE
:105570002025642E0A0000007C83000848616C66C8
:105580002073656E736974697669747920706172CD
:105590007420666F756E642E0A0000002DE9F043DA
:1055A00085B005460E4690469946294890F8250054
:1055B00020B14FF0FF3005B0BDE8F08316B94FF0D1
:1055C000FF30F8E7002423E0281B102801DD10201D
:1055D00000E0281B87B232193946204600F05EFDF4
:1055E00010B14FF0FF30E6E701AA3946204600F03F
:1055F00001F910B14FF0FF30DDE730193A4601A94B
:10560000FAF732FF10B16FF00100D4E7E01984B26D
:10561000AC42D9DB4FEA28208DF8000008F0FF00EB
:105620008DF801000A4A1268917E094A5268107882
:105630006B460222FCF740FD10B14FF0FF30BAE795
:105640000121034880F82510A0F826900020B2E739
:105650002C00002038B50446282C02DD4FF0FF3026
:1056600038BDDCB9002000F0EBFB00208DF8000015
:1056700007208DF801002E4A1268917C2C4A52684E
:1056800010786B460222FCF717FD10B14FF0FF3087
:10569000E6E70021264801750020E1E7012000F03F
:1056A000CFFB20208DF80000012C06D100208DF8C2
:1056B0000100052000F0FAFB17E0052C06DC0120B4
:1056C0008DF80100052000F0F1FB0EE0142C06DC43
:1056D00002208DF801000A2000F0E8FB05E003201D
:1056E0008DF80100142000F0E1FB9DF80100072176
:1056F00001EB8010C0B28DF801000D4A1268917C58
:105700000B4A526810786B460222FCF7D5FC10B1A8
:105710004FF0FF30A4E70821054881720021017392
:10572000012101750020FFF7DDFC002098E7000053
:105730002C000020F8B504460F4616462C4890F879
:10574000240010B94FF0FF30F8BD2948807A10B915
:105750004FF0FF30F8E7264A1268917A244A5268DF
:1057600010786B460222FCF76DFC10B14FF0FF3051
:10577000EAE79DF801009DF8001040EA0125A542E6
:1057800003DA00203070401EDEE719484068408888
:10579000B5EB600F17DD164A1268517C144A526847
:1057A00010786B460122FCF74DFC10B14FF0FF3032
:1057B000CAE79DF8000000F0100020B100F05AF890
:1057C0006FF00100C0E7E2B2094B1B68D97A084BC1
:1057D0005B6818783B46FCF735FC10B14FF0FF30A2
:1057E000B2E795FBF4F0401E30700020ACE70000FB
:1057F0002C000020F8B504460D46164616B94FF0A9
:10580000FF30F8BD1A48807A10B94FF0FF30F8E742
:1058100020128DF80000E0B28DF801009DF8010023
:105820002844134949684989884202DD4FF0FF3016
:10583000E7E70F4A1268117E0D4A526810786B46EE
:105840000222FCF739FC10B14FF0FF30D9E7EAB281
:10585000074B1B68597D064B5B6818783346FCF78D
:10586000F1FB10B14FF0FF30CBE70020C9E700009B
:105870002C00002008B57048807A10B94FF0FF3036
:1058800008BD002000906C4A1268D17B6A4A5268B9
:1058900010786B460122FCF70FFC10B14FF0FF307F
:1058A000EEE7654A12685179634A526810786B4690
:1058B0000122FCF701FC10B14FF0FF30E0E75E4A37
:1058C000126811795C4A526810786B460122FCF725
:1058D000F3FB10B14FF0FF30D2E7574890F82400A7
:1058E000002853D00C200090534A12681179524A74
:1058F000526810786B460122FCF7DEFB10B14FF0C6
:10590000FF30BDE73220FDF7B3FFC02000904A48CA
:10591000807A00F0010020B19DF8000040F02000E6
:105920000090454A12681179434A526810786B46D4
:105930000122FCF7C1FB10B14FF0FF30A0E73E4859
:10594000407C10B10220009001E0002000903A4A13
:105950001268D17B384A526810786B460122FCF7F6
:10596000ABFB10B14FF0FF308AE700200090324AC5
:1059700012685179304A526810786B460122FCF760
:105980009BFB002855D04FF0FF3079E704200090B2
:10599000294A12681179284A526810786B46012208
:1059A000FCF78AFB10B14FF0FF3069E72248807C9A
:1059B00020B92148807A00F0010010B94020009001
:1059C00001E0602000901C4A126811791A4A52685E
:1059D00010786B460122FCF76FFB10B14FF0FF30DF
:1059E0004EE73220FDF744FF1348407C10B1012000
:1059F000009001E0002000900F4A1268D17B0E4A0F
:105A0000526810786B460122FCF756FB10B14FF03C
:105A1000FF3035E7084A12685179074A5268107812
:105A2000054B10330122FCF747FB10B14FF0FF305C
:105A300026E7002024E700002C0000202DE9F04F8D
:105A40008DB083460F4602200C90424890F8240007
:105A500020B1002000F068F9012600E0002603A82C
:105A6000FFF720FC05A8FFF7C5FB01A8FFF764FCC2
:105A700002A8FFF789FC374890F80AA004A8FFF7AE
:105A800009FC002407E0002239465846FEF74EFF85
:105A900000B902E0641C022CF5DB00BF022C01D12E
:105AA000002528E0002407E0012206A909A8FEF746
:105AB0003DFF00B902E0641C022CF5DB00BF022CA4
:105AC00001D1002517E006A93846FDF795FB00F047
:105AD000FF0809A95846FFF761F900F0FF09002502
